{
  "contractName": "MedicalRecordsManagement",
  "abi": [
    {
      "anonymous": false,
      "inputs": [
        {
          "indexed": true,
          "internalType": "address",
          "name": "patient",
          "type": "address"
        },
        {
          "indexed": true,
          "internalType": "address",
          "name": "doctor",
          "type": "address"
        },
        {
          "indexed": false,
          "internalType": "bool",
          "name": "accessGranted",
          "type": "bool"
        }
      ],
      "name": "AccessChanged",
      "type": "event"
    },
    {
      "inputs": [
        {
          "internalType": "uint256",
          "name": "",
          "type": "uint256"
        }
      ],
      "name": "doctorAddresses",
      "outputs": [
        {
          "internalType": "address",
          "name": "",
          "type": "address"
        }
      ],
      "stateMutability": "view",
      "type": "function",
      "constant": true
    },
    {
      "inputs": [],
      "name": "createPatient",
      "outputs": [],
      "stateMutability": "nonpayable",
      "type": "function"
    },
    {
      "inputs": [
        {
          "internalType": "string",
          "name": "_username",
          "type": "string"
        },
        {
          "internalType": "string",
          "name": "_name",
          "type": "string"
        },
        {
          "internalType": "string",
          "name": "_licenseId",
          "type": "string"
        },
        {
          "internalType": "string",
          "name": "_specialization",
          "type": "string"
        }
      ],
      "name": "createDoctor",
      "outputs": [],
      "stateMutability": "nonpayable",
      "type": "function"
    },
    {
      "inputs": [
        {
          "internalType": "address",
          "name": "add",
          "type": "address"
        }
      ],
      "name": "getPatient",
      "outputs": [
        {
          "internalType": "string[]",
          "name": "",
          "type": "string[]"
        },
        {
          "internalType": "address[]",
          "name": "",
          "type": "address[]"
        },
        {
          "internalType": "string[]",
          "name": "",
          "type": "string[]"
        },
        {
          "internalType": "string[]",
          "name": "",
          "type": "string[]"
        }
      ],
      "stateMutability": "view",
      "type": "function",
      "constant": true
    },
    {
      "inputs": [
        {
          "internalType": "address",
          "name": "add",
          "type": "address"
        }
      ],
      "name": "getDoctor",
      "outputs": [
        {
          "internalType": "string",
          "name": "",
          "type": "string"
        },
        {
          "internalType": "string",
          "name": "",
          "type": "string"
        },
        {
          "internalType": "string",
          "name": "",
          "type": "string"
        },
        {
          "internalType": "string",
          "name": "",
          "type": "string"
        },
        {
          "internalType": "address[]",
          "name": "",
          "type": "address[]"
        }
      ],
      "stateMutability": "view",
      "type": "function",
      "constant": true
    },
    {
      "inputs": [
        {
          "internalType": "address",
          "name": "doctorAdd",
          "type": "address"
        }
      ],
      "name": "grantAccess",
      "outputs": [],
      "stateMutability": "nonpayable",
      "type": "function"
    },
    {
      "inputs": [
        {
          "internalType": "address",
          "name": "doctorAdd",
          "type": "address"
        }
      ],
      "name": "revokeAccess",
      "outputs": [],
      "stateMutability": "nonpayable",
      "type": "function"
    },
    {
      "inputs": [
        {
          "internalType": "address",
          "name": "patientAdd",
          "type": "address"
        }
      ],
      "name": "getAccessedDoctorList",
      "outputs": [
        {
          "components": [
            {
              "internalType": "string",
              "name": "username",
              "type": "string"
            },
            {
              "internalType": "string",
              "name": "name",
              "type": "string"
            },
            {
              "internalType": "string",
              "name": "licenseId",
              "type": "string"
            },
            {
              "internalType": "string",
              "name": "specialization",
              "type": "string"
            },
            {
              "internalType": "address",
              "name": "doctorAdd",
              "type": "address"
            }
          ],
          "internalType": "struct MedicalRecordsManagement.toGetDoctorList[]",
          "name": "",
          "type": "tuple[]"
        }
      ],
      "stateMutability": "view",
      "type": "function",
      "constant": true
    },
    {
      "inputs": [
        {
          "internalType": "address",
          "name": "doctorAdd",
          "type": "address"
        }
      ],
      "name": "getAccessedPatientList",
      "outputs": [
        {
          "internalType": "address[]",
          "name": "",
          "type": "address[]"
        }
      ],
      "stateMutability": "view",
      "type": "function",
      "constant": true
    },
    {
      "inputs": [],
      "name": "getAllDoctors",
      "outputs": [
        {
          "components": [
            {
              "internalType": "string",
              "name": "username",
              "type": "string"
            },
            {
              "internalType": "string",
              "name": "name",
              "type": "string"
            },
            {
              "internalType": "string",
              "name": "licenseId",
              "type": "string"
            },
            {
              "internalType": "string",
              "name": "specialization",
              "type": "string"
            },
            {
              "internalType": "address",
              "name": "doctorAdd",
              "type": "address"
            }
          ],
          "internalType": "struct MedicalRecordsManagement.toGetDoctorList[]",
          "name": "",
          "type": "tuple[]"
        }
      ],
      "stateMutability": "view",
      "type": "function",
      "constant": true
    },
    {
      "inputs": [
        {
          "internalType": "address",
          "name": "pAdd",
          "type": "address"
        },
        {
          "internalType": "address",
          "name": "dAdd",
          "type": "address"
        }
      ],
      "name": "checkAccess",
      "outputs": [
        {
          "internalType": "bool",
          "name": "",
          "type": "bool"
        }
      ],
      "stateMutability": "view",
      "type": "function",
      "constant": true
    },
    {
      "inputs": [
        {
          "internalType": "address",
          "name": "patientAdd",
          "type": "address"
        }
      ],
      "name": "getPatientDataForDoctor",
      "outputs": [
        {
          "internalType": "string[]",
          "name": "",
          "type": "string[]"
        }
      ],
      "stateMutability": "view",
      "type": "function",
      "constant": true
    },
    {
      "inputs": [
        {
          "internalType": "address",
          "name": "patientAdd",
          "type": "address"
        },
        {
          "internalType": "string",
          "name": "data",
          "type": "string"
        }
      ],
      "name": "addPatientDataForDoctor",
      "outputs": [],
      "stateMutability": "nonpayable",
      "type": "function"
    },
    {
      "inputs": [],
      "name": "getPatientDataForPatient",
      "outputs": [
        {
          "internalType": "string[]",
          "name": "",
          "type": "string[]"
        }
      ],
      "stateMutability": "view",
      "type": "function",
      "constant": true
    },
    {
      "inputs": [],
      "name": "getPendingIpfs",
      "outputs": [
        {
          "internalType": "string[]",
          "name": "",
          "type": "string[]"
        }
      ],
      "stateMutability": "view",
      "type": "function",
      "constant": true
    },
    {
      "inputs": [
        {
          "internalType": "address",
          "name": "patientAdd",
          "type": "address"
        },
        {
          "internalType": "string",
          "name": "ipfs",
          "type": "string"
        }
      ],
      "name": "recordApprove",
      "outputs": [],
      "stateMutability": "nonpayable",
      "type": "function"
    },
    {
      "inputs": [
        {
          "internalType": "string",
          "name": "str1",
          "type": "string"
        },
        {
          "internalType": "string",
          "name": "str2",
          "type": "string"
        }
      ],
      "name": "compare",
      "outputs": [
        {
          "internalType": "bool",
          "name": "",
          "type": "bool"
        }
      ],
      "stateMutability": "pure",
      "type": "function",
      "constant": true
    }
  ],
  "bytecode": "0x608060405234801561001057600080fd5b50613b00806100206000396000f3fe608060405234801561001057600080fd5b506004361061010a5760003560e01c8063679446a3116100a2578063b5368e2011610071578063b5368e20146102b9578063c43e2d4a146102ec578063e1586d5014610308578063f0d9509014610338578063f473974c146103565761010a565b8063679446a31461023557806385e68531146102655780638b5e56b914610281578063ab4bb9f51461029d5761010a565b80633a96fdd7116100de5780633a96fdd7146101875780633ba51e7c146101b757806342fd9a35146101e757806362e1f745146102055761010a565b806214244a1461010f5780630ae5e7391461012d5780632f04e0641461014957806335a271781461017d575b600080fd5b610117610386565b6040516101249190612c6b565b60405180910390f35b61014760048036038101906101429190612cff565b61049f565b005b610163600480360381019061015e9190612cff565b61064e565b604051610174959493929190612e34565b60405180910390f35b610185610a6b565b005b6101a1600480360381019061019c9190612fdf565b610b2d565b6040516101ae9190613072565b60405180910390f35b6101d160048036038101906101cc91906130c3565b610b86565b6040516101de91906130ff565b60405180910390f35b6101ef610bc5565b6040516101fc9190612c6b565b60405180910390f35b61021f600480360381019061021a919061311a565b610cde565b60405161022c9190613072565b60405180910390f35b61024f600480360381019061024a9190612cff565b610e10565b60405161025c919061315a565b60405180910390f35b61027f600480360381019061027a9190612cff565b610ee0565b005b61029b6004803603810190610296919061317c565b6114fc565b005b6102b760048036038101906102b291906131d8565b61182c565b005b6102d360048036038101906102ce9190612cff565b611a83565b6040516102e394939291906132af565b60405180910390f35b6103066004803603810190610301919061317c565b611ea1565b005b610322600480360381019061031d9190612cff565b611f63565b60405161032f919061345d565b60405180910390f35b6103406124b8565b60405161034d919061345d565b60405180910390f35b610370600480360381019061036b9190612cff565b6127b5565b60405161037d9190612c6b565b60405180910390f35b6060600260003373ffffffffffffffffffffffffffffffffffffffff1673ffffffffffffffffffffffffffffffffffffffff168152602001908152602001600020600301805480602002602001604051908101604052809291908181526020016000905b82821015610496578382906000526020600020018054610409906134ae565b80601f0160208091040260200160405190810160405280929190818152602001828054610435906134ae565b80156104825780601f1061045757610100808354040283529160200191610482565b820191906000526020600020905b81548152906001019060200180831161046557829003601f168201915b5050505050815260200190600101906103ea565b50505050905090565b600260003373ffffffffffffffffffffffffffffffffffffffff1673ffffffffffffffffffffffffffffffffffffffff168152602001908152602001600020600101819080600181540180825580915050600190039060005260206000200160009091909190916101000a81548173ffffffffffffffffffffffffffffffffffffffff021916908373ffffffffffffffffffffffffffffffffffffffff160217905550600360008273ffffffffffffffffffffffffffffffffffffffff1673ffffffffffffffffffffffffffffffffffffffff168152602001908152602001600020600401339080600181540180825580915050600190039060005260206000200160009091909190916101000a81548173ffffffffffffffffffffffffffffffffffffffff021916908373ffffffffffffffffffffffffffffffffffffffff1602179055508073ffffffffffffffffffffffffffffffffffffffff163373ffffffffffffffffffffffffffffffffffffffff167f0c2e6b1ab7b47daeb309d6dc42624fc533cf3bb0a6239a3ec5aacf3df7c9f28760016040516106439190613072565b60405180910390a350565b6060806060806060600360008773ffffffffffffffffffffffffffffffffffffffff1673ffffffffffffffffffffffffffffffffffffffff168152602001908152602001600020600001600360008873ffffffffffffffffffffffffffffffffffffffff1673ffffffffffffffffffffffffffffffffffffffff168152602001908152602001600020600101600360008973ffffffffffffffffffffffffffffffffffffffff1673ffffffffffffffffffffffffffffffffffffffff168152602001908152602001600020600201600360008a73ffffffffffffffffffffffffffffffffffffffff1673ffffffffffffffffffffffffffffffffffffffff168152602001908152602001600020600301600360008b73ffffffffffffffffffffffffffffffffffffffff1673ffffffffffffffffffffffffffffffffffffffff1681526020019081526020016000206004018480546107ac906134ae565b80601f01602080910402602001604051908101604052809291908181526020018280546107d8906134ae565b80156108255780601f106107fa57610100808354040283529160200191610825565b820191906000526020600020905b81548152906001019060200180831161080857829003601f168201915b50505050509450838054610838906134ae565b80601f0160208091040260200160405190810160405280929190818152602001828054610864906134ae565b80156108b15780601f10610886576101008083540402835291602001916108b1565b820191906000526020600020905b81548152906001019060200180831161089457829003601f168201915b505050505093508280546108c4906134ae565b80601f01602080910402602001604051908101604052809291908181526020018280546108f0906134ae565b801561093d5780601f106109125761010080835404028352916020019161093d565b820191906000526020600020905b81548152906001019060200180831161092057829003601f168201915b50505050509250818054610950906134ae565b80601f016020809104026020016040519081016040528092919081815260200182805461097c906134ae565b80156109c95780601f1061099e576101008083540402835291602001916109c9565b820191906000526020600020905b8154815290600101906020018083116109ac57829003601f168201915b5050505050915080805480602002602001604051908101604052809291908181526020018280548015610a5157602002820191906000526020600020905b8160009054906101000a900473ffffffffffffffffffffffffffffffffffffffff1673ffffffffffffffffffffffffffffffffffffffff1681526020019060010190808311610a07575b505050505090509450945094509450945091939590929450565b610a73612919565b80600260003373ffffffffffffffffffffffffffffffffffffffff1673ffffffffffffffffffffffffffffffffffffffff1681526020019081526020016000206000820151816000019080519060200190610acf929190612941565b506020820151816001019080519060200190610aec92919061299a565b506040820151816002019080519060200190610b09929190612941565b506060820151816003019080519060200190610b26929190612941565b5090505050565b600081604051602001610b40919061351b565b6040516020818303038152906040528051906020012083604051602001610b67919061351b565b6040516020818303038152906040528051906020012014905092915050565b60008181548110610b9657600080fd5b906000526020600020016000915054906101000a900473ffffffffffffffffffffffffffffffffffffffff1681565b6060600260003373ffffffffffffffffffffffffffffffffffffffff1673ffffffffffffffffffffffffffffffffffffffff168152602001908152602001600020600001805480602002602001604051908101604052809291908181526020016000905b82821015610cd5578382906000526020600020018054610c48906134ae565b80601f0160208091040260200160405190810160405280929190818152602001828054610c74906134ae565b8015610cc15780601f10610c9657610100808354040283529160200191610cc1565b820191906000526020600020905b815481529060010190602001808311610ca457829003601f168201915b505050505081526020019060010190610c29565b50505050905090565b600080600260008573ffffffffffffffffffffffffffffffffffffffff1673ffffffffffffffffffffffffffffffffffffffff16815260200190815260200160002060010180549050905060005b81811015610e03578373ffffffffffffffffffffffffffffffffffffffff16600260008773ffffffffffffffffffffffffffffffffffffffff1673ffffffffffffffffffffffffffffffffffffffff1681526020019081526020016000206001018281548110610d9f57610d9e613532565b5b9060005260206000200160009054906101000a900473ffffffffffffffffffffffffffffffffffffffff1673ffffffffffffffffffffffffffffffffffffffff1603610df057600192505050610e0a565b8080610dfb90613590565b915050610d2c565b5060009150505b92915050565b6060600360008373ffffffffffffffffffffffffffffffffffffffff1673ffffffffffffffffffffffffffffffffffffffff168152602001908152602001600020600401805480602002602001604051908101604052809291908181526020018280548015610ed457602002820191906000526020600020905b8160009054906101000a900473ffffffffffffffffffffffffffffffffffffffff1673ffffffffffffffffffffffffffffffffffffffff1681526020019060010190808311610e8a575b50505050509050919050565b600080600260003373ffffffffffffffffffffffffffffffffffffffff1673ffffffffffffffffffffffffffffffffffffffff16815260200190815260200160002060010180549050905060005b81811015611002578373ffffffffffffffffffffffffffffffffffffffff16600260003373ffffffffffffffffffffffffffffffffffffffff1673ffffffffffffffffffffffffffffffffffffffff1681526020019081526020016000206001018281548110610fa157610fa0613532565b5b9060005260206000200160009054906101000a900473ffffffffffffffffffffffffffffffffffffffff1673ffffffffffffffffffffffffffffffffffffffff1603610fef57809250611002565b8080610ffa90613590565b915050610f2e565b50808210156111ba57600260003373ffffffffffffffffffffffffffffffffffffffff1673ffffffffffffffffffffffffffffffffffffffff16815260200190815260200160002060010160018261105a91906135d8565b8154811061106b5761106a613532565b5b9060005260206000200160009054906101000a900473ffffffffffffffffffffffffffffffffffffffff16600260003373ffffffffffffffffffffffffffffffffffffffff1673ffffffffffffffffffffffffffffffffffffffff16815260200190815260200160002060010183815481106110ea576110e9613532565b5b9060005260206000200160006101000a81548173ffffffffffffffffffffffffffffffffffffffff021916908373ffffffffffffffffffffffffffffffffffffffff160217905550600260003373ffffffffffffffffffffffffffffffffffffffff1673ffffffffffffffffffffffffffffffffffffffff1681526020019081526020016000206001018054806111845761118361360c565b5b6001900381819060005260206000200160006101000a81549073ffffffffffffffffffffffffffffffffffffffff021916905590555b600360008473ffffffffffffffffffffffffffffffffffffffff1673ffffffffffffffffffffffffffffffffffffffff16815260200190815260200160002060040180549050905060005b818110156112d9573373ffffffffffffffffffffffffffffffffffffffff16600360008673ffffffffffffffffffffffffffffffffffffffff1673ffffffffffffffffffffffffffffffffffffffff168152602001908152602001600020600401828154811061127857611277613532565b5b9060005260206000200160009054906101000a900473ffffffffffffffffffffffffffffffffffffffff1673ffffffffffffffffffffffffffffffffffffffff16036112c6578092506112d9565b80806112d190613590565b915050611205565b508082101561149157600360008473ffffffffffffffffffffffffffffffffffffffff1673ffffffffffffffffffffffffffffffffffffffff16815260200190815260200160002060040160018261133191906135d8565b8154811061134257611341613532565b5b9060005260206000200160009054906101000a900473ffffffffffffffffffffffffffffffffffffffff16600360008573ffffffffffffffffffffffffffffffffffffffff1673ffffffffffffffffffffffffffffffffffffffff16815260200190815260200160002060040183815481106113c1576113c0613532565b5b9060005260206000200160006101000a81548173ffffffffffffffffffffffffffffffffffffffff021916908373ffffffffffffffffffffffffffffffffffffffff160217905550600360008473ffffffffffffffffffffffffffffffffffffffff1673ffffffffffffffffffffffffffffffffffffffff16815260200190815260200160002060040180548061145b5761145a61360c565b5b6001900381819060005260206000200160006101000a81549073ffffffffffffffffffffffffffffffffffffffff021916905590555b8273ffffffffffffffffffffffffffffffffffffffff163373ffffffffffffffffffffffffffffffffffffffff167f0c2e6b1ab7b47daeb309d6dc42624fc533cf3bb0a6239a3ec5aacf3df7c9f28760006040516114ef9190613072565b60405180910390a3505050565b600080600260008573ffffffffffffffffffffffffffffffffffffffff1673ffffffffffffffffffffffffffffffffffffffff16815260200190815260200160002060030180549050905060005b8181101561166257611642600260008773ffffffffffffffffffffffffffffffffffffffff1673ffffffffffffffffffffffffffffffffffffffff16815260200190815260200160002060030182815481106115a9576115a8613532565b5b9060005260206000200180546115be906134ae565b80601f01602080910402602001604051908101604052809291908181526020018280546115ea906134ae565b80156116375780601f1061160c57610100808354040283529160200191611637565b820191906000526020600020905b81548152906001019060200180831161161a57829003601f168201915b505050505085610b2d565b1561164f57809250611662565b808061165a90613590565b91505061154a565b508082101561182657600260008573ffffffffffffffffffffffffffffffffffffffff1673ffffffffffffffffffffffffffffffffffffffff1681526020019081526020016000206003016001826116ba91906135d8565b815481106116cb576116ca613532565b5b90600052602060002001600260008673ffffffffffffffffffffffffffffffffffffffff1673ffffffffffffffffffffffffffffffffffffffff168152602001908152602001600020600301838154811061172957611728613532565b5b90600052602060002001908161173f9190613812565b50600260008573ffffffffffffffffffffffffffffffffffffffff1673ffffffffffffffffffffffffffffffffffffffff1681526020019081526020016000206003018054806117925761179161360c565b5b6001900381819060005260206000200160006117ae9190612a24565b9055600260008573ffffffffffffffffffffffffffffffffffffffff1673ffffffffffffffffffffffffffffffffffffffff1681526020019081526020016000206000018390806001815401808255809150506001900390600052602060002001600090919091909150908161182491906138fa565b505b50505050565b611834612a64565b84816000018190525083816020018190525082816040018190525081816060018190525080600360003373ffffffffffffffffffffffffffffffffffffffff1673ffffffffffffffffffffffffffffffffffffffff16815260200190815260200160002060008201518160000190816118ad91906138fa565b5060208201518160010190816118c391906138fa565b5060408201518160020190816118d991906138fa565b5060608201518160030190816118ef91906138fa565b50608082015181600401908051906020019061190c92919061299a565b509050506000339080600181540180825580915050600190039060005260206000200160009091909190916101000a81548173ffffffffffffffffffffffffffffffffffffffff021916908373ffffffffffffffffffffffffffffffffffffffff16021790555060016040518060a001604052808781526020018681526020018581526020018481526020013373ffffffffffffffffffffffffffffffffffffffff16815250908060018154018082558091505060019003906000526020600020906005020160009091909190915060008201518160000190816119f091906138fa565b506020820151816001019081611a0691906138fa565b506040820151816002019081611a1c91906138fa565b506060820151816003019081611a3291906138fa565b5060808201518160040160006101000a81548173ffffffffffffffffffffffffffffffffffffffff021916908373ffffffffffffffffffffffffffffffffffffffff16021790555050505050505050565b606080606080600260008673ffffffffffffffffffffffffffffffffffffffff1673ffffffffffffffffffffffffffffffffffffffff168152602001908152602001600020600001600260008773ffffffffffffffffffffffffffffffffffffffff1673ffffffffffffffffffffffffffffffffffffffff168152602001908152602001600020600101600260008873ffffffffffffffffffffffffffffffffffffffff1673ffffffffffffffffffffffffffffffffffffffff168152602001908152602001600020600201600260008973ffffffffffffffffffffffffffffffffffffffff1673ffffffffffffffffffffffffffffffffffffffff16815260200190815260200160002060030183805480602002602001604051908101604052809291908181526020016000905b82821015611c5e578382906000526020600020018054611bd1906134ae565b80601f0160208091040260200160405190810160405280929190818152602001828054611bfd906134ae565b8015611c4a5780601f10611c1f57610100808354040283529160200191611c4a565b820191906000526020600020905b815481529060010190602001808311611c2d57829003601f168201915b505050505081526020019060010190611bb2565b50505050935082805480602002602001604051908101604052809291908181526020018280548015611ce557602002820191906000526020600020905b8160009054906101000a900473ffffffffffffffffffffffffffffffffffffffff1673ffffffffffffffffffffffffffffffffffffffff1681526020019060010190808311611c9b575b5050505050925081805480602002602001604051908101604052809291908181526020016000905b82821015611db9578382906000526020600020018054611d2c906134ae565b80601f0160208091040260200160405190810160405280929190818152602001828054611d58906134ae565b8015611da55780601f10611d7a57610100808354040283529160200191611da5565b820191906000526020600020905b815481529060010190602001808311611d8857829003601f168201915b505050505081526020019060010190611d0d565b50505050915080805480602002602001604051908101604052809291908181526020016000905b82821015611e8c578382906000526020600020018054611dff906134ae565b80601f0160208091040260200160405190810160405280929190818152602001828054611e2b906134ae565b8015611e785780601f10611e4d57610100808354040283529160200191611e78565b820191906000526020600020905b815481529060010190602001808311611e5b57829003601f168201915b505050505081526020019060010190611de0565b50505050905093509350935093509193509193565b611eab8233610cde565b611eea576040517f08c379a0000000000000000000000000000000000000000000000000000000008152600401611ee190613a18565b60405180910390fd5b600260008373ffffffffffffffffffffffffffffffffffffffff1673ffffffffffffffffffffffffffffffffffffffff16815260200190815260200160002060030181908060018154018082558091505060019003906000526020600020016000909190919091509081611f5e91906138fa565b505050565b60606000600260008473ffffffffffffffffffffffffffffffffffffffff1673ffffffffffffffffffffffffffffffffffffffff16815260200190815260200160002060010180548060200260200160405190810160405280929190818152602001828054801561202957602002820191906000526020600020905b8160009054906101000a900473ffffffffffffffffffffffffffffffffffffffff1673ffffffffffffffffffffffffffffffffffffffff1681526020019060010190808311611fdf575b505050505090506000815167ffffffffffffffff81111561204d5761204c612eb4565b5b60405190808252806020026020018201604052801561208657816020015b612073612a93565b81526020019060019003908161206b5790505b50905060005b82518110156124ad576040518060a00160405280600360008685815181106120b7576120b6613532565b5b602002602001015173ffffffffffffffffffffffffffffffffffffffff1673ffffffffffffffffffffffffffffffffffffffff1681526020019081526020016000206000018054612107906134ae565b80601f0160208091040260200160405190810160405280929190818152602001828054612133906134ae565b80156121805780601f1061215557610100808354040283529160200191612180565b820191906000526020600020905b81548152906001019060200180831161216357829003601f168201915b50505050508152602001600360008685815181106121a1576121a0613532565b5b602002602001015173ffffffffffffffffffffffffffffffffffffffff1673ffffffffffffffffffffffffffffffffffffffff16815260200190815260200160002060010180546121f1906134ae565b80601f016020809104026020016040519081016040528092919081815260200182805461221d906134ae565b801561226a5780601f1061223f5761010080835404028352916020019161226a565b820191906000526020600020905b81548152906001019060200180831161224d57829003601f168201915b505050505081526020016003600086858151811061228b5761228a613532565b5b602002602001015173ffffffffffffffffffffffffffffffffffffffff1673ffffffffffffffffffffffffffffffffffffffff16815260200190815260200160002060020180546122db906134ae565b80601f0160208091040260200160405190810160405280929190818152602001828054612307906134ae565b80156123545780601f1061232957610100808354040283529160200191612354565b820191906000526020600020905b81548152906001019060200180831161233757829003601f168201915b505050505081526020016003600086858151811061237557612374613532565b5b602002602001015173ffffffffffffffffffffffffffffffffffffffff1673ffffffffffffffffffffffffffffffffffffffff16815260200190815260200160002060030180546123c5906134ae565b80601f01602080910402602001604051908101604052809291908181526020018280546123f1906134ae565b801561243e5780601f106124135761010080835404028352916020019161243e565b820191906000526020600020905b81548152906001019060200180831161242157829003601f168201915b5050505050815260200184838151811061245b5761245a613532565b5b602002602001015173ffffffffffffffffffffffffffffffffffffffff1681525082828151811061248f5761248e613532565b5b602002602001018190525080806124a590613590565b91505061208c565b508092505050919050565b60606001805480602002602001604051908101604052809291908181526020016000905b828210156127ac57838290600052602060002090600502016040518060a001604052908160008201805461250f906134ae565b80601f016020809104026020016040519081016040528092919081815260200182805461253b906134ae565b80156125885780601f1061255d57610100808354040283529160200191612588565b820191906000526020600020905b81548152906001019060200180831161256b57829003601f168201915b505050505081526020016001820180546125a1906134ae565b80601f01602080910402602001604051908101604052809291908181526020018280546125cd906134ae565b801561261a5780601f106125ef5761010080835404028352916020019161261a565b820191906000526020600020905b8154815290600101906020018083116125fd57829003601f168201915b50505050508152602001600282018054612633906134ae565b80601f016020809104026020016040519081016040528092919081815260200182805461265f906134ae565b80156126ac5780601f10612681576101008083540402835291602001916126ac565b820191906000526020600020905b81548152906001019060200180831161268f57829003601f168201915b505050505081526020016003820180546126c5906134ae565b80601f01602080910402602001604051908101604052809291908181526020018280546126f1906134ae565b801561273e5780601f106127135761010080835404028352916020019161273e565b820191906000526020600020905b81548152906001019060200180831161272157829003601f168201915b505050505081526020016004820160009054906101000a900473ffffffffffffffffffffffffffffffffffffffff1673ffffffffffffffffffffffffffffffffffffffff1673ffffffffffffffffffffffffffffffffffffffff1681525050815260200190600101906124dc565b50505050905090565b60606127c18233610cde565b612800576040517f08c379a00000000000000000000000000000000000000000000000000000000081526004016127f790613aaa565b60405180910390fd5b600260008373ffffffffffffffffffffffffffffffffffffffff1673ffffffffffffffffffffffffffffffffffffffff168152602001908152602001600020600001805480602002602001604051908101604052809291908181526020016000905b8282101561290e578382906000526020600020018054612881906134ae565b80601f01602080910402602001604051908101604052809291908181526020018280546128ad906134ae565b80156128fa5780601f106128cf576101008083540402835291602001916128fa565b820191906000526020600020905b8154815290600101906020018083116128dd57829003601f168201915b505050505081526020019060010190612862565b505050509050919050565b6040518060800160405280606081526020016060815260200160608152602001606081525090565b828054828255906000526020600020908101928215612989579160200282015b8281111561298857825182908161297891906138fa565b5091602001919060010190612961565b5b5090506129969190612ad8565b5090565b828054828255906000526020600020908101928215612a13579160200282015b82811115612a125782518260006101000a81548173ffffffffffffffffffffffffffffffffffffffff021916908373ffffffffffffffffffffffffffffffffffffffff160217905550916020019190600101906129ba565b5b509050612a209190612afc565b5090565b508054612a30906134ae565b6000825580601f10612a425750612a61565b601f016020900490600052602060002090810190612a609190612afc565b5b50565b6040518060a0016040528060608152602001606081526020016060815260200160608152602001606081525090565b6040518060a0016040528060608152602001606081526020016060815260200160608152602001600073ffffffffffffffffffffffffffffffffffffffff1681525090565b5b80821115612af85760008181612aef9190612a24565b50600101612ad9565b5090565b5b80821115612b15576000816000905550600101612afd565b5090565b600081519050919050565b600082825260208201905092915050565b6000819050602082019050919050565b600081519050919050565b600082825260208201905092915050565b60005b83811015612b7f578082015181840152602081019050612b64565b60008484015250505050565b6000601f19601f8301169050919050565b6000612ba782612b45565b612bb18185612b50565b9350612bc1818560208601612b61565b612bca81612b8b565b840191505092915050565b6000612be18383612b9c565b905092915050565b6000602082019050919050565b6000612c0182612b19565b612c0b8185612b24565b935083602082028501612c1d85612b35565b8060005b85811015612c595784840389528151612c3a8582612bd5565b9450612c4583612be9565b925060208a01995050600181019050612c21565b50829750879550505050505092915050565b60006020820190508181036000830152612c858184612bf6565b905092915050565b6000604051905090565b600080fd5b600080fd5b600073ffffffffffffffffffffffffffffffffffffffff82169050919050565b6000612ccc82612ca1565b9050919050565b612cdc81612cc1565b8114612ce757600080fd5b50565b600081359050612cf981612cd3565b92915050565b600060208284031215612d1557612d14612c97565b5b6000612d2384828501612cea565b91505092915050565b600082825260208201905092915050565b6000612d4882612b45565b612d528185612d2c565b9350612d62818560208601612b61565b612d6b81612b8b565b840191505092915050565b600081519050919050565b600082825260208201905092915050565b6000819050602082019050919050565b612dab81612cc1565b82525050565b6000612dbd8383612da2565b60208301905092915050565b6000602082019050919050565b6000612de182612d76565b612deb8185612d81565b9350612df683612d92565b8060005b83811015612e27578151612e0e8882612db1565b9750612e1983612dc9565b925050600181019050612dfa565b5085935050505092915050565b600060a0820190508181036000830152612e4e8188612d3d565b90508181036020830152612e628187612d3d565b90508181036040830152612e768186612d3d565b90508181036060830152612e8a8185612d3d565b90508181036080830152612e9e8184612dd6565b90509695505050505050565b600080fd5b600080fd5b7f4e487b7100000000000000000000000000000000000000000000000000000000600052604160045260246000fd5b612eec82612b8b565b810181811067ffffffffffffffff82111715612f0b57612f0a612eb4565b5b80604052505050565b6000612f1e612c8d565b9050612f2a8282612ee3565b919050565b600067ffffffffffffffff821115612f4a57612f49612eb4565b5b612f5382612b8b565b9050602081019050919050565b82818337600083830152505050565b6000612f82612f7d84612f2f565b612f14565b905082815260208101848484011115612f9e57612f9d612eaf565b5b612fa9848285612f60565b509392505050565b600082601f830112612fc657612fc5612eaa565b5b8135612fd6848260208601612f6f565b91505092915050565b60008060408385031215612ff657612ff5612c97565b5b600083013567ffffffffffffffff81111561301457613013612c9c565b5b61302085828601612fb1565b925050602083013567ffffffffffffffff81111561304157613040612c9c565b5b61304d85828601612fb1565b9150509250929050565b60008115159050919050565b61306c81613057565b82525050565b60006020820190506130876000830184613063565b92915050565b6000819050919050565b6130a08161308d565b81146130ab57600080fd5b50565b6000813590506130bd81613097565b92915050565b6000602082840312156130d9576130d8612c97565b5b60006130e7848285016130ae565b91505092915050565b6130f981612cc1565b82525050565b600060208201905061311460008301846130f0565b92915050565b6000806040838503121561313157613130612c97565b5b600061313f85828601612cea565b925050602061315085828601612cea565b9150509250929050565b600060208201905081810360008301526131748184612dd6565b905092915050565b6000806040838503121561319357613192612c97565b5b60006131a185828601612cea565b925050602083013567ffffffffffffffff8111156131c2576131c1612c9c565b5b6131ce85828601612fb1565b9150509250929050565b600080600080608085870312156131f2576131f1612c97565b5b600085013567ffffffffffffffff8111156132105761320f612c9c565b5b61321c87828801612fb1565b945050602085013567ffffffffffffffff81111561323d5761323c612c9c565b5b61324987828801612fb1565b935050604085013567ffffffffffffffff81111561326a57613269612c9c565b5b61327687828801612fb1565b925050606085013567ffffffffffffffff81111561329757613296612c9c565b5b6132a387828801612fb1565b91505092959194509250565b600060808201905081810360008301526132c98187612bf6565b905081810360208301526132dd8186612dd6565b905081810360408301526132f18185612bf6565b905081810360608301526133058184612bf6565b905095945050505050565b600081519050919050565b600082825260208201905092915050565b6000819050602082019050919050565b600060a08301600083015184820360008601526133598282612b9c565b915050602083015184820360208601526133738282612b9c565b9150506040830151848203604086015261338d8282612b9c565b915050606083015184820360608601526133a78282612b9c565b91505060808301516133bc6080860182612da2565b508091505092915050565b60006133d3838361333c565b905092915050565b6000602082019050919050565b60006133f382613310565b6133fd818561331b565b93508360208202850161340f8561332c565b8060005b8581101561344b578484038952815161342c85826133c7565b9450613437836133db565b925060208a01995050600181019050613413565b50829750879550505050505092915050565b6000602082019050818103600083015261347781846133e8565b905092915050565b7f4e487b7100000000000000000000000000000000000000000000000000000000600052602260045260246000fd5b600060028204905060018216806134c657607f821691505b6020821081036134d9576134d861347f565b5b50919050565b600081905092915050565b60006134f582612b45565b6134ff81856134df565b935061350f818560208601612b61565b80840191505092915050565b600061352782846134ea565b915081905092915050565b7f4e487b7100000000000000000000000000000000000000000000000000000000600052603260045260246000fd5b7f4e487b7100000000000000000000000000000000000000000000000000000000600052601160045260246000fd5b600061359b8261308d565b91507fffffffffffffffffffffffffffffffffffffffffffffffffffffffffffffffff82036135cd576135cc613561565b5b600182019050919050565b60006135e38261308d565b91506135ee8361308d565b925082820390508181111561360657613605613561565b5b92915050565b7f4e487b7100000000000000000000000000000000000000000000000000000000600052603160045260246000fd5b60008154905061364a816134ae565b9050919050565b60008190508160005260206000209050919050565b60008190508160005260206000209050919050565b60006020601f8301049050919050565b600082821b905092915050565b6000600883026136c87fffffffffffffffffffffffffffffffffffffffffffffffffffffffffffffffff8261368b565b6136d2868361368b565b95508019841693508086168417925050509392505050565b6000819050919050565b600061370f61370a6137058461308d565b6136ea565b61308d565b9050919050565b6000819050919050565b613729836136f4565b61373d61373582613716565b848454613698565b825550505050565b600090565b613752613745565b61375d818484613720565b505050565b5b818110156137815761377660008261374a565b600181019050613763565b5050565b601f8211156137c65761379781613651565b6137a08461367b565b810160208510156137af578190505b6137c36137bb8561367b565b830182613762565b50505b505050565b600082821c905092915050565b60006137e9600019846008026137cb565b1980831691505092915050565b600061380283836137d8565b9150826002028217905092915050565b8181036138205750506138f8565b6138298261363b565b67ffffffffffffffff81111561384257613841612eb4565b5b61384c82546134ae565b613857828285613785565b6000601f8311600181146138865760008415613874578287015490505b61387e85826137f6565b8655506138f1565b601f19841661389487613666565b965061389f86613651565b60005b828110156138c7578489015482556001820191506001850194506020810190506138a2565b868310156138e457848901546138e0601f8916826137d8565b8355505b6001600288020188555050505b5050505050505b565b61390382612b45565b67ffffffffffffffff81111561391c5761391b612eb4565b5b61392682546134ae565b613931828285613785565b600060209050601f8311600181146139645760008415613952578287015190505b61395c85826137f6565b8655506139c4565b601f19841661397286613651565b60005b8281101561399a57848901518255600182019150602085019450602081019050613975565b868310156139b757848901516139b3601f8916826137d8565b8355505b6001600288020188555050505b505050505050565b7f596f7520646f206e6f7420686176652061636365737300000000000000000000600082015250565b6000613a02601683612d2c565b9150613a0d826139cc565b602082019050919050565b60006020820190508181036000830152613a31816139f5565b9050919050565b7f596f7520646f206e6f7420686176652061636365737320746f2074686973207060008201527f617469656e742064617461000000000000000000000000000000000000000000602082015250565b6000613a94602b83612d2c565b9150613a9f82613a38565b604082019050919050565b60006020820190508181036000830152613ac381613a87565b905091905056fea26469706673582212202b30e346a8cf94f2b7e20f5546fc1ba7a212287b8dbd3329696a11806b7d970e64736f6c63430008130033",
  "immutableReferences": {},
  "source": "pragma solidity ^0.8.17;\r\n\r\ncontract MedicalRecordsManagement {\r\n\r\n    event AccessChanged(address indexed patient, address indexed doctor, bool accessGranted);\r\n\r\n    struct ipfsRecord{\r\n        string[] ipfsHashes;\r\n        address[] doctorAccessList;\r\n        string[] ipnsRecords;\r\n        string[] pendingIpfs;\r\n    }\r\n    struct doctor{\r\n        string username;\r\n        string name;\r\n        string licenseId;\r\n        string specialization;\r\n        address[] patientAccessList;\r\n    }\r\n\r\n    struct toGetDoctorList{\r\n        string username;\r\n        string name;\r\n        string licenseId;\r\n        string specialization;\r\n        address doctorAdd;\r\n    }\r\n\r\n    address[] public doctorAddresses;\r\n    toGetDoctorList[] doctorList;\r\n    mapping(address => ipfsRecord) patientRecords;\r\n    mapping(address => doctor) doctorRecords;\r\n\r\n    function createPatient() public {\r\n        // require(patientRecords[msg.sender].ipfsHashes.length == 0, \"Patient already exists\");\r\n        ipfsRecord memory i;\r\n        patientRecords[msg.sender] = i;\r\n    }\r\n    function createDoctor(string memory _username, string memory _name, string memory _licenseId,  string memory _specialization) public {\r\n        // require(doctorRecords[msg.sender].username == \"\", \"Doctor already exists\");\r\n\r\n        doctor memory d;\r\n        d.username = _username;\r\n        d.name = _name;\r\n        d.licenseId = _licenseId;\r\n        d.specialization = _specialization;\r\n        doctorRecords[msg.sender] = d;\r\n        doctorAddresses.push(msg.sender);\r\n        doctorList.push(toGetDoctorList(_username,_name,_licenseId,_specialization,msg.sender));\r\n\r\n    }\r\n    function getPatient(address add) view public returns (string[] memory, address[] memory ,string[] memory,string[] memory) {\r\n        return (patientRecords[add].ipfsHashes,patientRecords[add].doctorAccessList,patientRecords[add].ipnsRecords,patientRecords[add].pendingIpfs);\r\n    }\r\n    function getDoctor(address add) view public returns (string memory, string memory, string memory, string memory, address[] memory){\r\n        return (doctorRecords[add].username, doctorRecords[add].name,doctorRecords[add].licenseId,doctorRecords[add].specialization,doctorRecords[add].patientAccessList);\r\n    }\r\n\r\n    function grantAccess(address doctorAdd) public{\r\n        patientRecords[msg.sender].doctorAccessList.push(doctorAdd);\r\n        doctorRecords[doctorAdd].patientAccessList.push(msg.sender);\r\n        emit AccessChanged(msg.sender, doctorAdd, true);\r\n    }\r\n    function revokeAccess(address doctorAdd) public {\r\n        uint256 index;\r\n        uint256 accessCount = patientRecords[msg.sender].doctorAccessList.length;\r\n\r\n        // loop through the patient's doctor access list to find the doctor's address and its index\r\n        for (uint256 i = 0; i < accessCount; i++) {\r\n            if (patientRecords[msg.sender].doctorAccessList[i] == doctorAdd) {\r\n                index = i;\r\n                break;\r\n            }\r\n        }\r\n\r\n        // remove the doctor's address from the patient's doctor access list\r\n        if (index < accessCount) {\r\n            patientRecords[msg.sender].doctorAccessList[index] = patientRecords[msg.sender].doctorAccessList[accessCount - 1];\r\n            patientRecords[msg.sender].doctorAccessList.pop();\r\n        }\r\n\r\n        // remove the patient's address from the doctor's patient access list\r\n        accessCount = doctorRecords[doctorAdd].patientAccessList.length;\r\n        for (uint256 i = 0; i < accessCount; i++) {\r\n            if (doctorRecords[doctorAdd].patientAccessList[i] == msg.sender) {\r\n                index = i;\r\n                break;\r\n            }\r\n        }\r\n        if (index < accessCount) {\r\n            doctorRecords[doctorAdd].patientAccessList[index] = doctorRecords[doctorAdd].patientAccessList[accessCount - 1];\r\n            doctorRecords[doctorAdd].patientAccessList.pop();\r\n        }\r\n\r\n        emit AccessChanged(msg.sender, doctorAdd, false);\r\n    }\r\n\r\n    function getAccessedDoctorList(address patientAdd) view public  returns (toGetDoctorList[] memory){\r\n        \r\n        address[] memory temp1 = patientRecords[patientAdd].doctorAccessList;\r\n        toGetDoctorList[] memory temp = new toGetDoctorList[](temp1.length);\r\n        for(uint256 i=0;i<temp1.length;i++){\r\n            temp[i] = toGetDoctorList(doctorRecords[temp1[i]].username,doctorRecords[temp1[i]].name,doctorRecords[temp1[i]].licenseId,doctorRecords[temp1[i]].specialization,temp1[i]);\r\n        }\r\n        return temp;\r\n    }\r\n    function getAccessedPatientList(address doctorAdd) view public returns (address[] memory){\r\n        return doctorRecords[doctorAdd].patientAccessList;\r\n    }\r\n    function getAllDoctors() view public returns(toGetDoctorList[] memory){\r\n        return doctorList;\r\n    }\r\n\r\n    function checkAccess(address pAdd, address dAdd) view public returns(bool){\r\n        uint256 accessCount = patientRecords[pAdd].doctorAccessList.length;\r\n        for (uint256 i = 0; i < accessCount; i++) {\r\n            if (patientRecords[pAdd].doctorAccessList[i] == dAdd) {\r\n                return true;\r\n            }\r\n        }\r\n        return false;\r\n    }\r\n    function getPatientDataForDoctor(address patientAdd) public view returns (string[] memory){\r\n        require(checkAccess(patientAdd,msg.sender),\"You do not have access to this patient data\");\r\n        return (patientRecords[patientAdd].ipfsHashes);\r\n    }\r\n    function addPatientDataForDoctor(address patientAdd, string memory data) public{\r\n        require(checkAccess(patientAdd,msg.sender),\"You do not have access\");\r\n        patientRecords[patientAdd].pendingIpfs.push(data);\r\n    }\r\n    function getPatientDataForPatient() public view returns (string[] memory){\r\n        return (patientRecords[msg.sender].ipfsHashes);\r\n    }\r\n    function getPendingIpfs() public view returns (string[] memory){\r\n        return (patientRecords[msg.sender].pendingIpfs);\r\n    }\r\n    function recordApprove(address patientAdd, string memory ipfs) public {\r\n\r\n        uint256 index;\r\n        uint256 pendingRecordCount = patientRecords[patientAdd].pendingIpfs.length;\r\n        for (uint256 i = 0; i < pendingRecordCount; i++) {\r\n            if (compare(patientRecords[patientAdd].pendingIpfs[i],ipfs)) {\r\n                index = i;\r\n                break;\r\n            }\r\n        }\r\n        if (index < pendingRecordCount) {\r\n            patientRecords[patientAdd].pendingIpfs[index] = patientRecords[patientAdd].pendingIpfs[pendingRecordCount - 1];\r\n            patientRecords[patientAdd].pendingIpfs.pop();\r\n            patientRecords[patientAdd].ipfsHashes.push(ipfs);\r\n        }\r\n    } \r\n  function compare(string memory str1, string memory str2) public pure returns (bool) {\r\n        return keccak256(abi.encodePacked(str1)) == keccak256(abi.encodePacked(str2));\r\n    }\r\n}\r\n",
  "sourcePath": "C:\\Users\\parva\\Documents\\GitHub\\Implementation\\ehr\\contracts\\MedicalRecordsManagement.sol",
  "compiler": {
    "name": "solc",
    "version": "0.8.19+commit.7dd6d404.Emscripten.clang"
  },
  "schemaVersion": "3.4.13",
  "updatedAt": "2023-05-09T11:46:54.386Z",
  "networkType": "ethereum",
  "devdoc": {
    "kind": "dev",
    "methods": {},
    "version": 1
  },
  "userdoc": {
    "kind": "user",
    "methods": {},
    "version": 1
  }
}