{
  "contractName": "MedicalRecordsManagement",
  "abi": [
    {
      "anonymous": false,
      "inputs": [
        {
          "indexed": true,
          "internalType": "address",
          "name": "patient",
          "type": "address"
        },
        {
          "indexed": true,
          "internalType": "address",
          "name": "doctor",
          "type": "address"
        },
        {
          "indexed": false,
          "internalType": "bool",
          "name": "accessGranted",
          "type": "bool"
        }
      ],
      "name": "AccessChanged",
      "type": "event"
    },
    {
      "inputs": [
        {
          "internalType": "uint256",
          "name": "",
          "type": "uint256"
        }
      ],
      "name": "doctorAddresses",
      "outputs": [
        {
          "internalType": "address",
          "name": "",
          "type": "address"
        }
      ],
      "stateMutability": "view",
      "type": "function",
      "constant": true
    },
    {
      "inputs": [],
      "name": "createPatient",
      "outputs": [],
      "stateMutability": "nonpayable",
      "type": "function"
    },
    {
      "inputs": [
        {
          "internalType": "string",
          "name": "_username",
          "type": "string"
        },
        {
          "internalType": "string",
          "name": "_name",
          "type": "string"
        },
        {
          "internalType": "string",
          "name": "_licenseId",
          "type": "string"
        },
        {
          "internalType": "string",
          "name": "_specialization",
          "type": "string"
        }
      ],
      "name": "createDoctor",
      "outputs": [],
      "stateMutability": "nonpayable",
      "type": "function"
    },
    {
      "inputs": [
        {
          "internalType": "address",
          "name": "add",
          "type": "address"
        }
      ],
      "name": "getPatient",
      "outputs": [
        {
          "internalType": "string[]",
          "name": "",
          "type": "string[]"
        },
        {
          "internalType": "address[]",
          "name": "",
          "type": "address[]"
        }
      ],
      "stateMutability": "view",
      "type": "function",
      "constant": true
    },
    {
      "inputs": [
        {
          "internalType": "address",
          "name": "add",
          "type": "address"
        }
      ],
      "name": "getDoctor",
      "outputs": [
        {
          "internalType": "string",
          "name": "",
          "type": "string"
        },
        {
          "internalType": "string",
          "name": "",
          "type": "string"
        },
        {
          "internalType": "string",
          "name": "",
          "type": "string"
        },
        {
          "internalType": "string",
          "name": "",
          "type": "string"
        },
        {
          "internalType": "address[]",
          "name": "",
          "type": "address[]"
        }
      ],
      "stateMutability": "view",
      "type": "function",
      "constant": true
    },
    {
      "inputs": [
        {
          "internalType": "address",
          "name": "doctorAdd",
          "type": "address"
        }
      ],
      "name": "grantAccess",
      "outputs": [],
      "stateMutability": "nonpayable",
      "type": "function"
    },
    {
      "inputs": [
        {
          "internalType": "address",
          "name": "doctorAdd",
          "type": "address"
        }
      ],
      "name": "revokeAccess",
      "outputs": [],
      "stateMutability": "nonpayable",
      "type": "function"
    },
    {
      "inputs": [
        {
          "internalType": "address",
          "name": "patientAdd",
          "type": "address"
        }
      ],
      "name": "getAccessedDoctorList",
      "outputs": [
        {
          "components": [
            {
              "internalType": "string",
              "name": "username",
              "type": "string"
            },
            {
              "internalType": "string",
              "name": "name",
              "type": "string"
            },
            {
              "internalType": "string",
              "name": "licenseId",
              "type": "string"
            },
            {
              "internalType": "string",
              "name": "specialization",
              "type": "string"
            },
            {
              "internalType": "address",
              "name": "doctorAdd",
              "type": "address"
            }
          ],
          "internalType": "struct MedicalRecordsManagement.toGetDoctorList[]",
          "name": "",
          "type": "tuple[]"
        }
      ],
      "stateMutability": "view",
      "type": "function",
      "constant": true
    },
    {
      "inputs": [
        {
          "internalType": "address",
          "name": "doctorAdd",
          "type": "address"
        }
      ],
      "name": "getAccessedPatientList",
      "outputs": [
        {
          "internalType": "address[]",
          "name": "",
          "type": "address[]"
        }
      ],
      "stateMutability": "view",
      "type": "function",
      "constant": true
    },
    {
      "inputs": [],
      "name": "getAllDoctors",
      "outputs": [
        {
          "components": [
            {
              "internalType": "string",
              "name": "username",
              "type": "string"
            },
            {
              "internalType": "string",
              "name": "name",
              "type": "string"
            },
            {
              "internalType": "string",
              "name": "licenseId",
              "type": "string"
            },
            {
              "internalType": "string",
              "name": "specialization",
              "type": "string"
            },
            {
              "internalType": "address",
              "name": "doctorAdd",
              "type": "address"
            }
          ],
          "internalType": "struct MedicalRecordsManagement.toGetDoctorList[]",
          "name": "",
          "type": "tuple[]"
        }
      ],
      "stateMutability": "view",
      "type": "function",
      "constant": true
    },
    {
      "inputs": [
        {
          "internalType": "address",
          "name": "pAdd",
          "type": "address"
        },
        {
          "internalType": "address",
          "name": "dAdd",
          "type": "address"
        }
      ],
      "name": "checkAccess",
      "outputs": [
        {
          "internalType": "bool",
          "name": "",
          "type": "bool"
        }
      ],
      "stateMutability": "view",
      "type": "function",
      "constant": true
    },
    {
      "inputs": [
        {
          "internalType": "address",
          "name": "patientAdd",
          "type": "address"
        }
      ],
      "name": "getPatientDataForDoctor",
      "outputs": [
        {
          "internalType": "string[]",
          "name": "",
          "type": "string[]"
        }
      ],
      "stateMutability": "view",
      "type": "function",
      "constant": true
    },
    {
      "inputs": [
        {
          "internalType": "address",
          "name": "patientAdd",
          "type": "address"
        },
        {
          "internalType": "string",
          "name": "data",
          "type": "string"
        }
      ],
      "name": "addPatientDataForDoctor",
      "outputs": [],
      "stateMutability": "nonpayable",
      "type": "function"
    },
    {
      "inputs": [],
      "name": "getPatientDataForPatient",
      "outputs": [
        {
          "internalType": "string[]",
          "name": "",
          "type": "string[]"
        }
      ],
      "stateMutability": "view",
      "type": "function",
      "constant": true
    }
  ],
  "bytecode": "0x608060405234801561001057600080fd5b5061314f806100206000396000f3fe608060405234801561001057600080fd5b50600436106100ea5760003560e01c806385e685311161008c578063c43e2d4a11610066578063c43e2d4a14610260578063e1586d501461027c578063f0d95090146102ac578063f473974c146102ca576100ea565b806385e68531146101f7578063ab4bb9f514610213578063b5368e201461022f576100ea565b80633ba51e7c116100c85780633ba51e7c1461014957806342fd9a351461017957806362e1f74514610197578063679446a3146101c7576100ea565b80630ae5e739146100ef5780632f04e0641461010b57806335a271781461013f575b600080fd5b610109600480360381019061010491906123e2565b6102fa565b005b610125600480360381019061012091906123e2565b6104a9565b60405161013695949392919061255d565b60405180910390f35b6101476108c6565b005b610163600480360381019061015e9190612609565b61094e565b6040516101709190612645565b60405180910390f35b61018161098d565b60405161018e919061276c565b60405180910390f35b6101b160048036038101906101ac919061278e565b610aa6565b6040516101be91906127e9565b60405180910390f35b6101e160048036038101906101dc91906123e2565b610bd8565b6040516101ee9190612804565b60405180910390f35b610211600480360381019061020c91906123e2565b610ca8565b005b61022d6004803603810190610228919061295b565b6112c4565b005b610249600480360381019061024491906123e2565b61151b565b604051610257929190612a32565b60405180910390f35b61027a60048036038101906102759190612a69565b611706565b005b610296600480360381019061029191906123e2565b6117c8565b6040516102a39190612c12565b60405180910390f35b6102b4611d1d565b6040516102c19190612c12565b60405180910390f35b6102e460048036038101906102df91906123e2565b61201a565b6040516102f1919061276c565b60405180910390f35b600260003373ffffffffffffffffffffffffffffffffffffffff1673ffffffffffffffffffffffffffffffffffffffff168152602001908152602001600020600101819080600181540180825580915050600190039060005260206000200160009091909190916101000a81548173ffffffffffffffffffffffffffffffffffffffff021916908373ffffffffffffffffffffffffffffffffffffffff160217905550600360008273ffffffffffffffffffffffffffffffffffffffff1673ffffffffffffffffffffffffffffffffffffffff168152602001908152602001600020600401339080600181540180825580915050600190039060005260206000200160009091909190916101000a81548173ffffffffffffffffffffffffffffffffffffffff021916908373ffffffffffffffffffffffffffffffffffffffff1602179055508073ffffffffffffffffffffffffffffffffffffffff163373ffffffffffffffffffffffffffffffffffffffff167f0c2e6b1ab7b47daeb309d6dc42624fc533cf3bb0a6239a3ec5aacf3df7c9f287600160405161049e91906127e9565b60405180910390a350565b6060806060806060600360008773ffffffffffffffffffffffffffffffffffffffff1673ffffffffffffffffffffffffffffffffffffffff168152602001908152602001600020600001600360008873ffffffffffffffffffffffffffffffffffffffff1673ffffffffffffffffffffffffffffffffffffffff168152602001908152602001600020600101600360008973ffffffffffffffffffffffffffffffffffffffff1673ffffffffffffffffffffffffffffffffffffffff168152602001908152602001600020600201600360008a73ffffffffffffffffffffffffffffffffffffffff1673ffffffffffffffffffffffffffffffffffffffff168152602001908152602001600020600301600360008b73ffffffffffffffffffffffffffffffffffffffff1673ffffffffffffffffffffffffffffffffffffffff16815260200190815260200160002060040184805461060790612c63565b80601f016020809104026020016040519081016040528092919081815260200182805461063390612c63565b80156106805780601f1061065557610100808354040283529160200191610680565b820191906000526020600020905b81548152906001019060200180831161066357829003601f168201915b5050505050945083805461069390612c63565b80601f01602080910402602001604051908101604052809291908181526020018280546106bf90612c63565b801561070c5780601f106106e15761010080835404028352916020019161070c565b820191906000526020600020905b8154815290600101906020018083116106ef57829003601f168201915b5050505050935082805461071f90612c63565b80601f016020809104026020016040519081016040528092919081815260200182805461074b90612c63565b80156107985780601f1061076d57610100808354040283529160200191610798565b820191906000526020600020905b81548152906001019060200180831161077b57829003601f168201915b505050505092508180546107ab90612c63565b80601f01602080910402602001604051908101604052809291908181526020018280546107d790612c63565b80156108245780601f106107f957610100808354040283529160200191610824565b820191906000526020600020905b81548152906001019060200180831161080757829003601f168201915b50505050509150808054806020026020016040519081016040528092919081815260200182805480156108ac57602002820191906000526020600020905b8160009054906101000a900473ffffffffffffffffffffffffffffffffffffffff1673ffffffffffffffffffffffffffffffffffffffff1681526020019060010190808311610862575b505050505090509450945094509450945091939590929450565b6108ce61217e565b80600260003373ffffffffffffffffffffffffffffffffffffffff1673ffffffffffffffffffffffffffffffffffffffff168152602001908152602001600020600082015181600001908051906020019061092a929190612198565b5060208201518160010190805190602001906109479291906121f1565b5090505050565b6000818154811061095e57600080fd5b906000526020600020016000915054906101000a900473ffffffffffffffffffffffffffffffffffffffff1681565b6060600260003373ffffffffffffffffffffffffffffffffffffffff1673ffffffffffffffffffffffffffffffffffffffff168152602001908152602001600020600001805480602002602001604051908101604052809291908181526020016000905b82821015610a9d578382906000526020600020018054610a1090612c63565b80601f0160208091040260200160405190810160405280929190818152602001828054610a3c90612c63565b8015610a895780601f10610a5e57610100808354040283529160200191610a89565b820191906000526020600020905b815481529060010190602001808311610a6c57829003601f168201915b5050505050815260200190600101906109f1565b50505050905090565b600080600260008573ffffffffffffffffffffffffffffffffffffffff1673ffffffffffffffffffffffffffffffffffffffff16815260200190815260200160002060010180549050905060005b81811015610bcb578373ffffffffffffffffffffffffffffffffffffffff16600260008773ffffffffffffffffffffffffffffffffffffffff1673ffffffffffffffffffffffffffffffffffffffff1681526020019081526020016000206001018281548110610b6757610b66612c94565b5b9060005260206000200160009054906101000a900473ffffffffffffffffffffffffffffffffffffffff1673ffffffffffffffffffffffffffffffffffffffff1603610bb857600192505050610bd2565b8080610bc390612cf2565b915050610af4565b5060009150505b92915050565b6060600360008373ffffffffffffffffffffffffffffffffffffffff1673ffffffffffffffffffffffffffffffffffffffff168152602001908152602001600020600401805480602002602001604051908101604052809291908181526020018280548015610c9c57602002820191906000526020600020905b8160009054906101000a900473ffffffffffffffffffffffffffffffffffffffff1673ffffffffffffffffffffffffffffffffffffffff1681526020019060010190808311610c52575b50505050509050919050565b600080600260003373ffffffffffffffffffffffffffffffffffffffff1673ffffffffffffffffffffffffffffffffffffffff16815260200190815260200160002060010180549050905060005b81811015610dca578373ffffffffffffffffffffffffffffffffffffffff16600260003373ffffffffffffffffffffffffffffffffffffffff1673ffffffffffffffffffffffffffffffffffffffff1681526020019081526020016000206001018281548110610d6957610d68612c94565b5b9060005260206000200160009054906101000a900473ffffffffffffffffffffffffffffffffffffffff1673ffffffffffffffffffffffffffffffffffffffff1603610db757809250610dca565b8080610dc290612cf2565b915050610cf6565b5080821015610f8257600260003373ffffffffffffffffffffffffffffffffffffffff1673ffffffffffffffffffffffffffffffffffffffff168152602001908152602001600020600101600182610e229190612d3a565b81548110610e3357610e32612c94565b5b9060005260206000200160009054906101000a900473ffffffffffffffffffffffffffffffffffffffff16600260003373ffffffffffffffffffffffffffffffffffffffff1673ffffffffffffffffffffffffffffffffffffffff1681526020019081526020016000206001018381548110610eb257610eb1612c94565b5b9060005260206000200160006101000a81548173ffffffffffffffffffffffffffffffffffffffff021916908373ffffffffffffffffffffffffffffffffffffffff160217905550600260003373ffffffffffffffffffffffffffffffffffffffff1673ffffffffffffffffffffffffffffffffffffffff168152602001908152602001600020600101805480610f4c57610f4b612d6e565b5b6001900381819060005260206000200160006101000a81549073ffffffffffffffffffffffffffffffffffffffff021916905590555b600360008473ffffffffffffffffffffffffffffffffffffffff1673ffffffffffffffffffffffffffffffffffffffff16815260200190815260200160002060040180549050905060005b818110156110a1573373ffffffffffffffffffffffffffffffffffffffff16600360008673ffffffffffffffffffffffffffffffffffffffff1673ffffffffffffffffffffffffffffffffffffffff16815260200190815260200160002060040182815481106110405761103f612c94565b5b9060005260206000200160009054906101000a900473ffffffffffffffffffffffffffffffffffffffff1673ffffffffffffffffffffffffffffffffffffffff160361108e578092506110a1565b808061109990612cf2565b915050610fcd565b508082101561125957600360008473ffffffffffffffffffffffffffffffffffffffff1673ffffffffffffffffffffffffffffffffffffffff1681526020019081526020016000206004016001826110f99190612d3a565b8154811061110a57611109612c94565b5b9060005260206000200160009054906101000a900473ffffffffffffffffffffffffffffffffffffffff16600360008573ffffffffffffffffffffffffffffffffffffffff1673ffffffffffffffffffffffffffffffffffffffff168152602001908152602001600020600401838154811061118957611188612c94565b5b9060005260206000200160006101000a81548173ffffffffffffffffffffffffffffffffffffffff021916908373ffffffffffffffffffffffffffffffffffffffff160217905550600360008473ffffffffffffffffffffffffffffffffffffffff1673ffffffffffffffffffffffffffffffffffffffff16815260200190815260200160002060040180548061122357611222612d6e565b5b6001900381819060005260206000200160006101000a81549073ffffffffffffffffffffffffffffffffffffffff021916905590555b8273ffffffffffffffffffffffffffffffffffffffff163373ffffffffffffffffffffffffffffffffffffffff167f0c2e6b1ab7b47daeb309d6dc42624fc533cf3bb0a6239a3ec5aacf3df7c9f28760006040516112b791906127e9565b60405180910390a3505050565b6112cc61227b565b84816000018190525083816020018190525082816040018190525081816060018190525080600360003373ffffffffffffffffffffffffffffffffffffffff1673ffffffffffffffffffffffffffffffffffffffff16815260200190815260200160002060008201518160000190816113459190612f49565b50602082015181600101908161135b9190612f49565b5060408201518160020190816113719190612f49565b5060608201518160030190816113879190612f49565b5060808201518160040190805190602001906113a49291906121f1565b509050506000339080600181540180825580915050600190039060005260206000200160009091909190916101000a81548173ffffffffffffffffffffffffffffffffffffffff021916908373ffffffffffffffffffffffffffffffffffffffff16021790555060016040518060a001604052808781526020018681526020018581526020018481526020013373ffffffffffffffffffffffffffffffffffffffff16815250908060018154018082558091505060019003906000526020600020906005020160009091909190915060008201518160000190816114889190612f49565b50602082015181600101908161149e9190612f49565b5060408201518160020190816114b49190612f49565b5060608201518160030190816114ca9190612f49565b5060808201518160040160006101000a81548173ffffffffffffffffffffffffffffffffffffffff021916908373ffffffffffffffffffffffffffffffffffffffff16021790555050505050505050565b606080600260008473ffffffffffffffffffffffffffffffffffffffff1673ffffffffffffffffffffffffffffffffffffffff168152602001908152602001600020600001600260008573ffffffffffffffffffffffffffffffffffffffff1673ffffffffffffffffffffffffffffffffffffffff16815260200190815260200160002060010181805480602002602001604051908101604052809291908181526020016000905b8282101561166f5783829060005260206000200180546115e290612c63565b80601f016020809104026020016040519081016040528092919081815260200182805461160e90612c63565b801561165b5780601f106116305761010080835404028352916020019161165b565b820191906000526020600020905b81548152906001019060200180831161163e57829003601f168201915b5050505050815260200190600101906115c3565b505050509150808054806020026020016040519081016040528092919081815260200182805480156116f657602002820191906000526020600020905b8160009054906101000a900473ffffffffffffffffffffffffffffffffffffffff1673ffffffffffffffffffffffffffffffffffffffff16815260200190600101908083116116ac575b5050505050905091509150915091565b6117108233610aa6565b61174f576040517f08c379a000000000000000000000000000000000000000000000000000000000815260040161174690613067565b60405180910390fd5b600260008373ffffffffffffffffffffffffffffffffffffffff1673ffffffffffffffffffffffffffffffffffffffff168152602001908152602001600020600001819080600181540180825580915050600190039060005260206000200160009091909190915090816117c39190612f49565b505050565b60606000600260008473ffffffffffffffffffffffffffffffffffffffff1673ffffffffffffffffffffffffffffffffffffffff16815260200190815260200160002060010180548060200260200160405190810160405280929190818152602001828054801561188e57602002820191906000526020600020905b8160009054906101000a900473ffffffffffffffffffffffffffffffffffffffff1673ffffffffffffffffffffffffffffffffffffffff1681526020019060010190808311611844575b505050505090506000815167ffffffffffffffff8111156118b2576118b1612830565b5b6040519080825280602002602001820160405280156118eb57816020015b6118d86122aa565b8152602001906001900390816118d05790505b50905060005b8251811015611d12576040518060a001604052806003600086858151811061191c5761191b612c94565b5b602002602001015173ffffffffffffffffffffffffffffffffffffffff1673ffffffffffffffffffffffffffffffffffffffff168152602001908152602001600020600001805461196c90612c63565b80601f016020809104026020016040519081016040528092919081815260200182805461199890612c63565b80156119e55780601f106119ba576101008083540402835291602001916119e5565b820191906000526020600020905b8154815290600101906020018083116119c857829003601f168201915b5050505050815260200160036000868581518110611a0657611a05612c94565b5b602002602001015173ffffffffffffffffffffffffffffffffffffffff1673ffffffffffffffffffffffffffffffffffffffff1681526020019081526020016000206001018054611a5690612c63565b80601f0160208091040260200160405190810160405280929190818152602001828054611a8290612c63565b8015611acf5780601f10611aa457610100808354040283529160200191611acf565b820191906000526020600020905b815481529060010190602001808311611ab257829003601f168201915b5050505050815260200160036000868581518110611af057611aef612c94565b5b602002602001015173ffffffffffffffffffffffffffffffffffffffff1673ffffffffffffffffffffffffffffffffffffffff1681526020019081526020016000206002018054611b4090612c63565b80601f0160208091040260200160405190810160405280929190818152602001828054611b6c90612c63565b8015611bb95780601f10611b8e57610100808354040283529160200191611bb9565b820191906000526020600020905b815481529060010190602001808311611b9c57829003601f168201915b5050505050815260200160036000868581518110611bda57611bd9612c94565b5b602002602001015173ffffffffffffffffffffffffffffffffffffffff1673ffffffffffffffffffffffffffffffffffffffff1681526020019081526020016000206003018054611c2a90612c63565b80601f0160208091040260200160405190810160405280929190818152602001828054611c5690612c63565b8015611ca35780601f10611c7857610100808354040283529160200191611ca3565b820191906000526020600020905b815481529060010190602001808311611c8657829003601f168201915b50505050508152602001848381518110611cc057611cbf612c94565b5b602002602001015173ffffffffffffffffffffffffffffffffffffffff16815250828281518110611cf457611cf3612c94565b5b60200260200101819052508080611d0a90612cf2565b9150506118f1565b508092505050919050565b60606001805480602002602001604051908101604052809291908181526020016000905b8282101561201157838290600052602060002090600502016040518060a0016040529081600082018054611d7490612c63565b80601f0160208091040260200160405190810160405280929190818152602001828054611da090612c63565b8015611ded5780601f10611dc257610100808354040283529160200191611ded565b820191906000526020600020905b815481529060010190602001808311611dd057829003601f168201915b50505050508152602001600182018054611e0690612c63565b80601f0160208091040260200160405190810160405280929190818152602001828054611e3290612c63565b8015611e7f5780601f10611e5457610100808354040283529160200191611e7f565b820191906000526020600020905b815481529060010190602001808311611e6257829003601f168201915b50505050508152602001600282018054611e9890612c63565b80601f0160208091040260200160405190810160405280929190818152602001828054611ec490612c63565b8015611f115780601f10611ee657610100808354040283529160200191611f11565b820191906000526020600020905b815481529060010190602001808311611ef457829003601f168201915b50505050508152602001600382018054611f2a90612c63565b80601f0160208091040260200160405190810160405280929190818152602001828054611f5690612c63565b8015611fa35780601f10611f7857610100808354040283529160200191611fa3565b820191906000526020600020905b815481529060010190602001808311611f8657829003601f168201915b505050505081526020016004820160009054906101000a900473ffffffffffffffffffffffffffffffffffffffff1673ffffffffffffffffffffffffffffffffffffffff1673ffffffffffffffffffffffffffffffffffffffff168152505081526020019060010190611d41565b50505050905090565b60606120268233610aa6565b612065576040517f08c379a000000000000000000000000000000000000000000000000000000000815260040161205c906130f9565b60405180910390fd5b600260008373ffffffffffffffffffffffffffffffffffffffff1673ffffffffffffffffffffffffffffffffffffffff168152602001908152602001600020600001805480602002602001604051908101604052809291908181526020016000905b828210156121735783829060005260206000200180546120e690612c63565b80601f016020809104026020016040519081016040528092919081815260200182805461211290612c63565b801561215f5780601f106121345761010080835404028352916020019161215f565b820191906000526020600020905b81548152906001019060200180831161214257829003601f168201915b5050505050815260200190600101906120c7565b505050509050919050565b604051806040016040528060608152602001606081525090565b8280548282559060005260206000209081019282156121e0579160200282015b828111156121df5782518290816121cf9190612f49565b50916020019190600101906121b8565b5b5090506121ed91906122ef565b5090565b82805482825590600052602060002090810192821561226a579160200282015b828111156122695782518260006101000a81548173ffffffffffffffffffffffffffffffffffffffff021916908373ffffffffffffffffffffffffffffffffffffffff16021790555091602001919060010190612211565b5b5090506122779190612313565b5090565b6040518060a0016040528060608152602001606081526020016060815260200160608152602001606081525090565b6040518060a0016040528060608152602001606081526020016060815260200160608152602001600073ffffffffffffffffffffffffffffffffffffffff1681525090565b5b8082111561230f57600081816123069190612330565b506001016122f0565b5090565b5b8082111561232c576000816000905550600101612314565b5090565b50805461233c90612c63565b6000825580601f1061234e575061236d565b601f01602090049060005260206000209081019061236c9190612313565b5b50565b6000604051905090565b600080fd5b600080fd5b600073ffffffffffffffffffffffffffffffffffffffff82169050919050565b60006123af82612384565b9050919050565b6123bf816123a4565b81146123ca57600080fd5b50565b6000813590506123dc816123b6565b92915050565b6000602082840312156123f8576123f761237a565b5b6000612406848285016123cd565b91505092915050565b600081519050919050565b600082825260208201905092915050565b60005b8381101561244957808201518184015260208101905061242e565b60008484015250505050565b6000601f19601f8301169050919050565b60006124718261240f565b61247b818561241a565b935061248b81856020860161242b565b61249481612455565b840191505092915050565b600081519050919050565b600082825260208201905092915050565b6000819050602082019050919050565b6124d4816123a4565b82525050565b60006124e683836124cb565b60208301905092915050565b6000602082019050919050565b600061250a8261249f565b61251481856124aa565b935061251f836124bb565b8060005b8381101561255057815161253788826124da565b9750612542836124f2565b925050600181019050612523565b5085935050505092915050565b600060a08201905081810360008301526125778188612466565b9050818103602083015261258b8187612466565b9050818103604083015261259f8186612466565b905081810360608301526125b38185612466565b905081810360808301526125c781846124ff565b90509695505050505050565b6000819050919050565b6125e6816125d3565b81146125f157600080fd5b50565b600081359050612603816125dd565b92915050565b60006020828403121561261f5761261e61237a565b5b600061262d848285016125f4565b91505092915050565b61263f816123a4565b82525050565b600060208201905061265a6000830184612636565b92915050565b600081519050919050565b600082825260208201905092915050565b6000819050602082019050919050565b600082825260208201905092915050565b60006126a88261240f565b6126b2818561268c565b93506126c281856020860161242b565b6126cb81612455565b840191505092915050565b60006126e2838361269d565b905092915050565b6000602082019050919050565b600061270282612660565b61270c818561266b565b93508360208202850161271e8561267c565b8060005b8581101561275a578484038952815161273b85826126d6565b9450612746836126ea565b925060208a01995050600181019050612722565b50829750879550505050505092915050565b6000602082019050818103600083015261278681846126f7565b905092915050565b600080604083850312156127a5576127a461237a565b5b60006127b3858286016123cd565b92505060206127c4858286016123cd565b9150509250929050565b60008115159050919050565b6127e3816127ce565b82525050565b60006020820190506127fe60008301846127da565b92915050565b6000602082019050818103600083015261281e81846124ff565b905092915050565b600080fd5b600080fd5b7f4e487b7100000000000000000000000000000000000000000000000000000000600052604160045260246000fd5b61286882612455565b810181811067ffffffffffffffff8211171561288757612886612830565b5b80604052505050565b600061289a612370565b90506128a6828261285f565b919050565b600067ffffffffffffffff8211156128c6576128c5612830565b5b6128cf82612455565b9050602081019050919050565b82818337600083830152505050565b60006128fe6128f9846128ab565b612890565b90508281526020810184848401111561291a5761291961282b565b5b6129258482856128dc565b509392505050565b600082601f83011261294257612941612826565b5b81356129528482602086016128eb565b91505092915050565b600080600080608085870312156129755761297461237a565b5b600085013567ffffffffffffffff8111156129935761299261237f565b5b61299f8782880161292d565b945050602085013567ffffffffffffffff8111156129c0576129bf61237f565b5b6129cc8782880161292d565b935050604085013567ffffffffffffffff8111156129ed576129ec61237f565b5b6129f98782880161292d565b925050606085013567ffffffffffffffff811115612a1a57612a1961237f565b5b612a268782880161292d565b91505092959194509250565b60006040820190508181036000830152612a4c81856126f7565b90508181036020830152612a6081846124ff565b90509392505050565b60008060408385031215612a8057612a7f61237a565b5b6000612a8e858286016123cd565b925050602083013567ffffffffffffffff811115612aaf57612aae61237f565b5b612abb8582860161292d565b9150509250929050565b600081519050919050565b600082825260208201905092915050565b6000819050602082019050919050565b600060a0830160008301518482036000860152612b0e828261269d565b91505060208301518482036020860152612b28828261269d565b91505060408301518482036040860152612b42828261269d565b91505060608301518482036060860152612b5c828261269d565b9150506080830151612b7160808601826124cb565b508091505092915050565b6000612b888383612af1565b905092915050565b6000602082019050919050565b6000612ba882612ac5565b612bb28185612ad0565b935083602082028501612bc485612ae1565b8060005b85811015612c005784840389528151612be18582612b7c565b9450612bec83612b90565b925060208a01995050600181019050612bc8565b50829750879550505050505092915050565b60006020820190508181036000830152612c2c8184612b9d565b905092915050565b7f4e487b7100000000000000000000000000000000000000000000000000000000600052602260045260246000fd5b60006002820490506001821680612c7b57607f821691505b602082108103612c8e57612c8d612c34565b5b50919050565b7f4e487b7100000000000000000000000000000000000000000000000000000000600052603260045260246000fd5b7f4e487b7100000000000000000000000000000000000000000000000000000000600052601160045260246000fd5b6000612cfd826125d3565b91507fffffffffffffffffffffffffffffffffffffffffffffffffffffffffffffffff8203612d2f57612d2e612cc3565b5b600182019050919050565b6000612d45826125d3565b9150612d50836125d3565b9250828203905081811115612d6857612d67612cc3565b5b92915050565b7f4e487b7100000000000000000000000000000000000000000000000000000000600052603160045260246000fd5b60008190508160005260206000209050919050565b60006020601f8301049050919050565b600082821b905092915050565b600060088302612dff7fffffffffffffffffffffffffffffffffffffffffffffffffffffffffffffffff82612dc2565b612e098683612dc2565b95508019841693508086168417925050509392505050565b6000819050919050565b6000612e46612e41612e3c846125d3565b612e21565b6125d3565b9050919050565b6000819050919050565b612e6083612e2b565b612e74612e6c82612e4d565b848454612dcf565b825550505050565b600090565b612e89612e7c565b612e94818484612e57565b505050565b5b81811015612eb857612ead600082612e81565b600181019050612e9a565b5050565b601f821115612efd57612ece81612d9d565b612ed784612db2565b81016020851015612ee6578190505b612efa612ef285612db2565b830182612e99565b50505b505050565b600082821c905092915050565b6000612f2060001984600802612f02565b1980831691505092915050565b6000612f398383612f0f565b9150826002028217905092915050565b612f528261240f565b67ffffffffffffffff811115612f6b57612f6a612830565b5b612f758254612c63565b612f80828285612ebc565b600060209050601f831160018114612fb35760008415612fa1578287015190505b612fab8582612f2d565b865550613013565b601f198416612fc186612d9d565b60005b82811015612fe957848901518255600182019150602085019450602081019050612fc4565b868310156130065784890151613002601f891682612f0f565b8355505b6001600288020188555050505b505050505050565b7f596f7520646f206e6f7420686176652061636365737300000000000000000000600082015250565b600061305160168361241a565b915061305c8261301b565b602082019050919050565b6000602082019050818103600083015261308081613044565b9050919050565b7f596f7520646f206e6f7420686176652061636365737320746f2074686973207060008201527f617469656e742064617461000000000000000000000000000000000000000000602082015250565b60006130e3602b8361241a565b91506130ee82613087565b604082019050919050565b60006020820190508181036000830152613112816130d6565b905091905056fea2646970667358221220ba420bd4fce2711833c81b6d35a189224669f0ead0587ad1951adaaaffd24db464736f6c63430008130033",
  "immutableReferences": {},
  "source": "pragma solidity ^0.8.17;\r\n\r\ncontract MedicalRecordsManagement {\r\n\r\n    event AccessChanged(address indexed patient, address indexed doctor, bool accessGranted);\r\n\r\n    struct ipfsRecord{\r\n        string[] ipfsHashes;\r\n        address[] doctorAccessList;\r\n    }\r\n    struct doctor{\r\n        string username;\r\n        string name;\r\n        string licenseId;\r\n        string specialization;\r\n        address[] patientAccessList;\r\n    }\r\n\r\n    struct toGetDoctorList{\r\n        string username;\r\n        string name;\r\n        string licenseId;\r\n        string specialization;\r\n        address doctorAdd;\r\n    }\r\n\r\n    address[] public doctorAddresses;\r\n    toGetDoctorList[] doctorList;\r\n    mapping(address => ipfsRecord) patientRecords;\r\n    mapping(address => doctor) doctorRecords;\r\n\r\n    function createPatient() public {\r\n        // require(patientRecords[msg.sender].ipfsHashes.length == 0, \"Patient already exists\");\r\n        ipfsRecord memory i;\r\n        patientRecords[msg.sender] = i;\r\n    }\r\n    function createDoctor(string memory _username, string memory _name, string memory _licenseId,  string memory _specialization) public {\r\n        // require(doctorRecords[msg.sender].username == \"\", \"Doctor already exists\");\r\n\r\n        doctor memory d;\r\n        d.username = _username;\r\n        d.name = _name;\r\n        d.licenseId = _licenseId;\r\n        d.specialization = _specialization;\r\n        doctorRecords[msg.sender] = d;\r\n        doctorAddresses.push(msg.sender);\r\n        doctorList.push(toGetDoctorList(_username,_name,_licenseId,_specialization,msg.sender));\r\n\r\n    }\r\n    function getPatient(address add) view public returns (string[] memory, address[] memory ) {\r\n        return (patientRecords[add].ipfsHashes,patientRecords[add].doctorAccessList);\r\n    }\r\n    function getDoctor(address add) view public returns (string memory, string memory, string memory, string memory, address[] memory){\r\n        return (doctorRecords[add].username, doctorRecords[add].name,doctorRecords[add].licenseId,doctorRecords[add].specialization,doctorRecords[add].patientAccessList);\r\n    }\r\n\r\n    function grantAccess(address doctorAdd) public{\r\n        patientRecords[msg.sender].doctorAccessList.push(doctorAdd);\r\n        doctorRecords[doctorAdd].patientAccessList.push(msg.sender);\r\n        emit AccessChanged(msg.sender, doctorAdd, true);\r\n    }\r\n    function revokeAccess(address doctorAdd) public {\r\n        uint256 index;\r\n        uint256 accessCount = patientRecords[msg.sender].doctorAccessList.length;\r\n\r\n        // loop through the patient's doctor access list to find the doctor's address and its index\r\n        for (uint256 i = 0; i < accessCount; i++) {\r\n            if (patientRecords[msg.sender].doctorAccessList[i] == doctorAdd) {\r\n                index = i;\r\n                break;\r\n            }\r\n        }\r\n\r\n        // remove the doctor's address from the patient's doctor access list\r\n        if (index < accessCount) {\r\n            patientRecords[msg.sender].doctorAccessList[index] = patientRecords[msg.sender].doctorAccessList[accessCount - 1];\r\n            patientRecords[msg.sender].doctorAccessList.pop();\r\n        }\r\n\r\n        // remove the patient's address from the doctor's patient access list\r\n        accessCount = doctorRecords[doctorAdd].patientAccessList.length;\r\n        for (uint256 i = 0; i < accessCount; i++) {\r\n            if (doctorRecords[doctorAdd].patientAccessList[i] == msg.sender) {\r\n                index = i;\r\n                break;\r\n            }\r\n        }\r\n        if (index < accessCount) {\r\n            doctorRecords[doctorAdd].patientAccessList[index] = doctorRecords[doctorAdd].patientAccessList[accessCount - 1];\r\n            doctorRecords[doctorAdd].patientAccessList.pop();\r\n        }\r\n\r\n        emit AccessChanged(msg.sender, doctorAdd, false);\r\n    }\r\n\r\n    function getAccessedDoctorList(address patientAdd) view public  returns (toGetDoctorList[] memory){\r\n        \r\n        address[] memory temp1 = patientRecords[patientAdd].doctorAccessList;\r\n        toGetDoctorList[] memory temp = new toGetDoctorList[](temp1.length);\r\n        for(uint256 i=0;i<temp1.length;i++){\r\n            temp[i] = toGetDoctorList(doctorRecords[temp1[i]].username,doctorRecords[temp1[i]].name,doctorRecords[temp1[i]].licenseId,doctorRecords[temp1[i]].specialization,temp1[i]);\r\n        }\r\n        return temp;\r\n    }\r\n    function getAccessedPatientList(address doctorAdd) view public returns (address[] memory){\r\n        return doctorRecords[doctorAdd].patientAccessList;\r\n    }\r\n    function getAllDoctors() view public returns(toGetDoctorList[] memory){\r\n        return doctorList;\r\n    }\r\n\r\n    function checkAccess(address pAdd, address dAdd) view public returns(bool){\r\n        uint256 accessCount = patientRecords[pAdd].doctorAccessList.length;\r\n        for (uint256 i = 0; i < accessCount; i++) {\r\n            if (patientRecords[pAdd].doctorAccessList[i] == dAdd) {\r\n                return true;\r\n            }\r\n        }\r\n        return false;\r\n    }\r\n    function getPatientDataForDoctor(address patientAdd) public view returns (string[] memory){\r\n        require(checkAccess(patientAdd,msg.sender),\"You do not have access to this patient data\");\r\n        return (patientRecords[patientAdd].ipfsHashes);\r\n    }\r\n    function addPatientDataForDoctor(address patientAdd, string memory data) public{\r\n        require(checkAccess(patientAdd,msg.sender),\"You do not have access\");\r\n        patientRecords[patientAdd].ipfsHashes.push(data);\r\n    }\r\n    function getPatientDataForPatient() public view returns (string[] memory){\r\n        return (patientRecords[msg.sender].ipfsHashes);\r\n    }\r\n}",
  "sourcePath": "C:\\Users\\parva\\Desktop\\FYP\\Implementation\\ehr\\contracts\\MedicalRecordsManagement.sol",
  "compiler": {
    "name": "solc",
    "version": "0.8.19+commit.7dd6d404.Emscripten.clang"
  },
  "schemaVersion": "3.4.13",
  "updatedAt": "2023-03-18T20:34:05.869Z",
  "networkType": "ethereum",
  "devdoc": {
    "kind": "dev",
    "methods": {},
    "version": 1
  },
  "userdoc": {
    "kind": "user",
    "methods": {},
    "version": 1
  }
}