{
  "contractName": "MedicalRecordsManagement",
  "abi": [
    {
      "anonymous": false,
      "inputs": [
        {
          "indexed": true,
          "internalType": "address",
          "name": "patient",
          "type": "address"
        },
        {
          "indexed": true,
          "internalType": "address",
          "name": "doctor",
          "type": "address"
        },
        {
          "indexed": false,
          "internalType": "bool",
          "name": "accessGranted",
          "type": "bool"
        }
      ],
      "name": "AccessChanged",
      "type": "event"
    },
    {
      "inputs": [
        {
          "internalType": "uint256",
          "name": "",
          "type": "uint256"
        }
      ],
      "name": "doctorAddresses",
      "outputs": [
        {
          "internalType": "address",
          "name": "",
          "type": "address"
        }
      ],
      "stateMutability": "view",
      "type": "function",
      "constant": true
    },
    {
      "inputs": [],
      "name": "createPatient",
      "outputs": [],
      "stateMutability": "nonpayable",
      "type": "function"
    },
    {
      "inputs": [
        {
          "internalType": "string",
          "name": "_username",
          "type": "string"
        },
        {
          "internalType": "string",
          "name": "_name",
          "type": "string"
        },
        {
          "internalType": "string",
          "name": "_licenseId",
          "type": "string"
        },
        {
          "internalType": "string",
          "name": "_specialization",
          "type": "string"
        }
      ],
      "name": "createDoctor",
      "outputs": [],
      "stateMutability": "nonpayable",
      "type": "function"
    },
    {
      "inputs": [
        {
          "internalType": "address",
          "name": "add",
          "type": "address"
        }
      ],
      "name": "getPatient",
      "outputs": [
        {
          "internalType": "string[]",
          "name": "",
          "type": "string[]"
        },
        {
          "internalType": "address[]",
          "name": "",
          "type": "address[]"
        }
      ],
      "stateMutability": "view",
      "type": "function",
      "constant": true
    },
    {
      "inputs": [
        {
          "internalType": "address",
          "name": "add",
          "type": "address"
        }
      ],
      "name": "getDoctor",
      "outputs": [
        {
          "internalType": "string",
          "name": "",
          "type": "string"
        },
        {
          "internalType": "string",
          "name": "",
          "type": "string"
        },
        {
          "internalType": "string",
          "name": "",
          "type": "string"
        },
        {
          "internalType": "string",
          "name": "",
          "type": "string"
        },
        {
          "internalType": "address[]",
          "name": "",
          "type": "address[]"
        }
      ],
      "stateMutability": "view",
      "type": "function",
      "constant": true
    },
    {
      "inputs": [
        {
          "internalType": "address",
          "name": "doctorAdd",
          "type": "address"
        }
      ],
      "name": "grantAccess",
      "outputs": [],
      "stateMutability": "nonpayable",
      "type": "function"
    },
    {
      "inputs": [
        {
          "internalType": "address",
          "name": "doctorAdd",
          "type": "address"
        }
      ],
      "name": "revokeAccess",
      "outputs": [],
      "stateMutability": "nonpayable",
      "type": "function"
    },
    {
      "inputs": [
        {
          "internalType": "address",
          "name": "patientAdd",
          "type": "address"
        }
      ],
      "name": "getAccessedDoctorList",
      "outputs": [
        {
          "internalType": "address[]",
          "name": "",
          "type": "address[]"
        }
      ],
      "stateMutability": "view",
      "type": "function",
      "constant": true
    },
    {
      "inputs": [
        {
          "internalType": "address",
          "name": "doctorAdd",
          "type": "address"
        }
      ],
      "name": "getAccessedPatientList",
      "outputs": [
        {
          "internalType": "address[]",
          "name": "",
          "type": "address[]"
        }
      ],
      "stateMutability": "view",
      "type": "function",
      "constant": true
    },
    {
      "inputs": [],
      "name": "getAllDoctors",
      "outputs": [
        {
          "components": [
            {
              "internalType": "string",
              "name": "username",
              "type": "string"
            },
            {
              "internalType": "string",
              "name": "name",
              "type": "string"
            },
            {
              "internalType": "string",
              "name": "licenseId",
              "type": "string"
            },
            {
              "internalType": "string",
              "name": "specialization",
              "type": "string"
            },
            {
              "internalType": "address",
              "name": "doctorAdd",
              "type": "address"
            }
          ],
          "internalType": "struct MedicalRecordsManagement.toGetDoctorList[]",
          "name": "",
          "type": "tuple[]"
        }
      ],
      "stateMutability": "view",
      "type": "function",
      "constant": true
    },
    {
      "inputs": [
        {
          "internalType": "address",
          "name": "pAdd",
          "type": "address"
        },
        {
          "internalType": "address",
          "name": "dAdd",
          "type": "address"
        }
      ],
      "name": "checkAccess",
      "outputs": [
        {
          "internalType": "bool",
          "name": "",
          "type": "bool"
        }
      ],
      "stateMutability": "view",
      "type": "function",
      "constant": true
    },
    {
      "inputs": [
        {
          "internalType": "address",
          "name": "patientAdd",
          "type": "address"
        }
      ],
      "name": "getPatientDataForDoctor",
      "outputs": [
        {
          "internalType": "string[]",
          "name": "",
          "type": "string[]"
        }
      ],
      "stateMutability": "view",
      "type": "function",
      "constant": true
    },
    {
      "inputs": [
        {
          "internalType": "address",
          "name": "patientAdd",
          "type": "address"
        },
        {
          "internalType": "string",
          "name": "data",
          "type": "string"
        }
      ],
      "name": "addPatientDataForDoctor",
      "outputs": [],
      "stateMutability": "nonpayable",
      "type": "function"
    }
  ],
  "bytecode": "0x608060405234801561001057600080fd5b50612b33806100206000396000f3fe608060405234801561001057600080fd5b50600436106100cf5760003560e01c806385e685311161008c578063c43e2d4a11610066578063c43e2d4a14610227578063e1586d5014610243578063f0d9509014610273578063f473974c14610291576100cf565b806385e68531146101be578063ab4bb9f5146101da578063b5368e20146101f6576100cf565b80630ae5e739146100d45780632f04e064146100f057806335a27178146101245780633ba51e7c1461012e57806362e1f7451461015e578063679446a31461018e575b600080fd5b6100ee60048036038101906100e99190611dc6565b6102c1565b005b61010a60048036038101906101059190611dc6565b610470565b60405161011b959493929190611f41565b60405180910390f35b61012c61088d565b005b61014860048036038101906101439190611fed565b610915565b6040516101559190612029565b60405180910390f35b61017860048036038101906101739190612044565b610954565b604051610185919061209f565b60405180910390f35b6101a860048036038101906101a39190611dc6565b610a86565b6040516101b591906120ba565b60405180910390f35b6101d860048036038101906101d39190611dc6565b610b56565b005b6101f460048036038101906101ef9190612211565b611172565b005b610210600480360381019061020b9190611dc6565b6113c9565b60405161021e9291906123f4565b60405180910390f35b610241600480360381019061023c919061242b565b6115b4565b005b61025d60048036038101906102589190611dc6565b611676565b60405161026a91906120ba565b60405180910390f35b61027b611746565b60405161028891906125d4565b60405180910390f35b6102ab60048036038101906102a69190611dc6565b611a43565b6040516102b891906125f6565b60405180910390f35b600260003373ffffffffffffffffffffffffffffffffffffffff1673ffffffffffffffffffffffffffffffffffffffff168152602001908152602001600020600101819080600181540180825580915050600190039060005260206000200160009091909190916101000a81548173ffffffffffffffffffffffffffffffffffffffff021916908373ffffffffffffffffffffffffffffffffffffffff160217905550600360008273ffffffffffffffffffffffffffffffffffffffff1673ffffffffffffffffffffffffffffffffffffffff168152602001908152602001600020600401339080600181540180825580915050600190039060005260206000200160009091909190916101000a81548173ffffffffffffffffffffffffffffffffffffffff021916908373ffffffffffffffffffffffffffffffffffffffff1602179055508073ffffffffffffffffffffffffffffffffffffffff163373ffffffffffffffffffffffffffffffffffffffff167f0c2e6b1ab7b47daeb309d6dc42624fc533cf3bb0a6239a3ec5aacf3df7c9f2876001604051610465919061209f565b60405180910390a350565b6060806060806060600360008773ffffffffffffffffffffffffffffffffffffffff1673ffffffffffffffffffffffffffffffffffffffff168152602001908152602001600020600001600360008873ffffffffffffffffffffffffffffffffffffffff1673ffffffffffffffffffffffffffffffffffffffff168152602001908152602001600020600101600360008973ffffffffffffffffffffffffffffffffffffffff1673ffffffffffffffffffffffffffffffffffffffff168152602001908152602001600020600201600360008a73ffffffffffffffffffffffffffffffffffffffff1673ffffffffffffffffffffffffffffffffffffffff168152602001908152602001600020600301600360008b73ffffffffffffffffffffffffffffffffffffffff1673ffffffffffffffffffffffffffffffffffffffff1681526020019081526020016000206004018480546105ce90612647565b80601f01602080910402602001604051908101604052809291908181526020018280546105fa90612647565b80156106475780601f1061061c57610100808354040283529160200191610647565b820191906000526020600020905b81548152906001019060200180831161062a57829003601f168201915b5050505050945083805461065a90612647565b80601f016020809104026020016040519081016040528092919081815260200182805461068690612647565b80156106d35780601f106106a8576101008083540402835291602001916106d3565b820191906000526020600020905b8154815290600101906020018083116106b657829003601f168201915b505050505093508280546106e690612647565b80601f016020809104026020016040519081016040528092919081815260200182805461071290612647565b801561075f5780601f106107345761010080835404028352916020019161075f565b820191906000526020600020905b81548152906001019060200180831161074257829003601f168201915b5050505050925081805461077290612647565b80601f016020809104026020016040519081016040528092919081815260200182805461079e90612647565b80156107eb5780601f106107c0576101008083540402835291602001916107eb565b820191906000526020600020905b8154815290600101906020018083116107ce57829003601f168201915b505050505091508080548060200260200160405190810160405280929190818152602001828054801561087357602002820191906000526020600020905b8160009054906101000a900473ffffffffffffffffffffffffffffffffffffffff1673ffffffffffffffffffffffffffffffffffffffff1681526020019060010190808311610829575b505050505090509450945094509450945091939590929450565b610895611ba7565b80600260003373ffffffffffffffffffffffffffffffffffffffff1673ffffffffffffffffffffffffffffffffffffffff16815260200190815260200160002060008201518160000190805190602001906108f1929190611bc1565b50602082015181600101908051906020019061090e929190611c1a565b5090505050565b6000818154811061092557600080fd5b906000526020600020016000915054906101000a900473ffffffffffffffffffffffffffffffffffffffff1681565b600080600260008573ffffffffffffffffffffffffffffffffffffffff1673ffffffffffffffffffffffffffffffffffffffff16815260200190815260200160002060010180549050905060005b81811015610a79578373ffffffffffffffffffffffffffffffffffffffff16600260008773ffffffffffffffffffffffffffffffffffffffff1673ffffffffffffffffffffffffffffffffffffffff1681526020019081526020016000206001018281548110610a1557610a14612678565b5b9060005260206000200160009054906101000a900473ffffffffffffffffffffffffffffffffffffffff1673ffffffffffffffffffffffffffffffffffffffff1603610a6657600192505050610a80565b8080610a71906126d6565b9150506109a2565b5060009150505b92915050565b6060600360008373ffffffffffffffffffffffffffffffffffffffff1673ffffffffffffffffffffffffffffffffffffffff168152602001908152602001600020600401805480602002602001604051908101604052809291908181526020018280548015610b4a57602002820191906000526020600020905b8160009054906101000a900473ffffffffffffffffffffffffffffffffffffffff1673ffffffffffffffffffffffffffffffffffffffff1681526020019060010190808311610b00575b50505050509050919050565b600080600260003373ffffffffffffffffffffffffffffffffffffffff1673ffffffffffffffffffffffffffffffffffffffff16815260200190815260200160002060010180549050905060005b81811015610c78578373ffffffffffffffffffffffffffffffffffffffff16600260003373ffffffffffffffffffffffffffffffffffffffff1673ffffffffffffffffffffffffffffffffffffffff1681526020019081526020016000206001018281548110610c1757610c16612678565b5b9060005260206000200160009054906101000a900473ffffffffffffffffffffffffffffffffffffffff1673ffffffffffffffffffffffffffffffffffffffff1603610c6557809250610c78565b8080610c70906126d6565b915050610ba4565b5080821015610e3057600260003373ffffffffffffffffffffffffffffffffffffffff1673ffffffffffffffffffffffffffffffffffffffff168152602001908152602001600020600101600182610cd0919061271e565b81548110610ce157610ce0612678565b5b9060005260206000200160009054906101000a900473ffffffffffffffffffffffffffffffffffffffff16600260003373ffffffffffffffffffffffffffffffffffffffff1673ffffffffffffffffffffffffffffffffffffffff1681526020019081526020016000206001018381548110610d6057610d5f612678565b5b9060005260206000200160006101000a81548173ffffffffffffffffffffffffffffffffffffffff021916908373ffffffffffffffffffffffffffffffffffffffff160217905550600260003373ffffffffffffffffffffffffffffffffffffffff1673ffffffffffffffffffffffffffffffffffffffff168152602001908152602001600020600101805480610dfa57610df9612752565b5b6001900381819060005260206000200160006101000a81549073ffffffffffffffffffffffffffffffffffffffff021916905590555b600360008473ffffffffffffffffffffffffffffffffffffffff1673ffffffffffffffffffffffffffffffffffffffff16815260200190815260200160002060040180549050905060005b81811015610f4f573373ffffffffffffffffffffffffffffffffffffffff16600360008673ffffffffffffffffffffffffffffffffffffffff1673ffffffffffffffffffffffffffffffffffffffff1681526020019081526020016000206004018281548110610eee57610eed612678565b5b9060005260206000200160009054906101000a900473ffffffffffffffffffffffffffffffffffffffff1673ffffffffffffffffffffffffffffffffffffffff1603610f3c57809250610f4f565b8080610f47906126d6565b915050610e7b565b508082101561110757600360008473ffffffffffffffffffffffffffffffffffffffff1673ffffffffffffffffffffffffffffffffffffffff168152602001908152602001600020600401600182610fa7919061271e565b81548110610fb857610fb7612678565b5b9060005260206000200160009054906101000a900473ffffffffffffffffffffffffffffffffffffffff16600360008573ffffffffffffffffffffffffffffffffffffffff1673ffffffffffffffffffffffffffffffffffffffff168152602001908152602001600020600401838154811061103757611036612678565b5b9060005260206000200160006101000a81548173ffffffffffffffffffffffffffffffffffffffff021916908373ffffffffffffffffffffffffffffffffffffffff160217905550600360008473ffffffffffffffffffffffffffffffffffffffff1673ffffffffffffffffffffffffffffffffffffffff1681526020019081526020016000206004018054806110d1576110d0612752565b5b6001900381819060005260206000200160006101000a81549073ffffffffffffffffffffffffffffffffffffffff021916905590555b8273ffffffffffffffffffffffffffffffffffffffff163373ffffffffffffffffffffffffffffffffffffffff167f0c2e6b1ab7b47daeb309d6dc42624fc533cf3bb0a6239a3ec5aacf3df7c9f2876000604051611165919061209f565b60405180910390a3505050565b61117a611ca4565b84816000018190525083816020018190525082816040018190525081816060018190525080600360003373ffffffffffffffffffffffffffffffffffffffff1673ffffffffffffffffffffffffffffffffffffffff16815260200190815260200160002060008201518160000190816111f3919061292d565b506020820151816001019081611209919061292d565b50604082015181600201908161121f919061292d565b506060820151816003019081611235919061292d565b506080820151816004019080519060200190611252929190611c1a565b509050506000339080600181540180825580915050600190039060005260206000200160009091909190916101000a81548173ffffffffffffffffffffffffffffffffffffffff021916908373ffffffffffffffffffffffffffffffffffffffff16021790555060016040518060a001604052808781526020018681526020018581526020018481526020013373ffffffffffffffffffffffffffffffffffffffff1681525090806001815401808255809150506001900390600052602060002090600502016000909190919091506000820151816000019081611336919061292d565b50602082015181600101908161134c919061292d565b506040820151816002019081611362919061292d565b506060820151816003019081611378919061292d565b5060808201518160040160006101000a81548173ffffffffffffffffffffffffffffffffffffffff021916908373ffffffffffffffffffffffffffffffffffffffff16021790555050505050505050565b606080600260008473ffffffffffffffffffffffffffffffffffffffff1673ffffffffffffffffffffffffffffffffffffffff168152602001908152602001600020600001600260008573ffffffffffffffffffffffffffffffffffffffff1673ffffffffffffffffffffffffffffffffffffffff16815260200190815260200160002060010181805480602002602001604051908101604052809291908181526020016000905b8282101561151d57838290600052602060002001805461149090612647565b80601f01602080910402602001604051908101604052809291908181526020018280546114bc90612647565b80156115095780601f106114de57610100808354040283529160200191611509565b820191906000526020600020905b8154815290600101906020018083116114ec57829003601f168201915b505050505081526020019060010190611471565b505050509150808054806020026020016040519081016040528092919081815260200182805480156115a457602002820191906000526020600020905b8160009054906101000a900473ffffffffffffffffffffffffffffffffffffffff1673ffffffffffffffffffffffffffffffffffffffff168152602001906001019080831161155a575b5050505050905091509150915091565b6115be8233610954565b6115fd576040517f08c379a00000000000000000000000000000000000000000000000000000000081526004016115f490612a4b565b60405180910390fd5b600260008373ffffffffffffffffffffffffffffffffffffffff1673ffffffffffffffffffffffffffffffffffffffff16815260200190815260200160002060000181908060018154018082558091505060019003906000526020600020016000909190919091509081611671919061292d565b505050565b6060600260008373ffffffffffffffffffffffffffffffffffffffff1673ffffffffffffffffffffffffffffffffffffffff16815260200190815260200160002060010180548060200260200160405190810160405280929190818152602001828054801561173a57602002820191906000526020600020905b8160009054906101000a900473ffffffffffffffffffffffffffffffffffffffff1673ffffffffffffffffffffffffffffffffffffffff16815260200190600101908083116116f0575b50505050509050919050565b60606001805480602002602001604051908101604052809291908181526020016000905b82821015611a3a57838290600052602060002090600502016040518060a001604052908160008201805461179d90612647565b80601f01602080910402602001604051908101604052809291908181526020018280546117c990612647565b80156118165780601f106117eb57610100808354040283529160200191611816565b820191906000526020600020905b8154815290600101906020018083116117f957829003601f168201915b5050505050815260200160018201805461182f90612647565b80601f016020809104026020016040519081016040528092919081815260200182805461185b90612647565b80156118a85780601f1061187d576101008083540402835291602001916118a8565b820191906000526020600020905b81548152906001019060200180831161188b57829003601f168201915b505050505081526020016002820180546118c190612647565b80601f01602080910402602001604051908101604052809291908181526020018280546118ed90612647565b801561193a5780601f1061190f5761010080835404028352916020019161193a565b820191906000526020600020905b81548152906001019060200180831161191d57829003601f168201915b5050505050815260200160038201805461195390612647565b80601f016020809104026020016040519081016040528092919081815260200182805461197f90612647565b80156119cc5780601f106119a1576101008083540402835291602001916119cc565b820191906000526020600020905b8154815290600101906020018083116119af57829003601f168201915b505050505081526020016004820160009054906101000a900473ffffffffffffffffffffffffffffffffffffffff1673ffffffffffffffffffffffffffffffffffffffff1673ffffffffffffffffffffffffffffffffffffffff16815250508152602001906001019061176a565b50505050905090565b6060611a4f8233610954565b611a8e576040517f08c379a0000000000000000000000000000000000000000000000000000000008152600401611a8590612add565b60405180910390fd5b600260008373ffffffffffffffffffffffffffffffffffffffff1673ffffffffffffffffffffffffffffffffffffffff168152602001908152602001600020600001805480602002602001604051908101604052809291908181526020016000905b82821015611b9c578382906000526020600020018054611b0f90612647565b80601f0160208091040260200160405190810160405280929190818152602001828054611b3b90612647565b8015611b885780601f10611b5d57610100808354040283529160200191611b88565b820191906000526020600020905b815481529060010190602001808311611b6b57829003601f168201915b505050505081526020019060010190611af0565b505050509050919050565b604051806040016040528060608152602001606081525090565b828054828255906000526020600020908101928215611c09579160200282015b82811115611c08578251829081611bf8919061292d565b5091602001919060010190611be1565b5b509050611c169190611cd3565b5090565b828054828255906000526020600020908101928215611c93579160200282015b82811115611c925782518260006101000a81548173ffffffffffffffffffffffffffffffffffffffff021916908373ffffffffffffffffffffffffffffffffffffffff16021790555091602001919060010190611c3a565b5b509050611ca09190611cf7565b5090565b6040518060a0016040528060608152602001606081526020016060815260200160608152602001606081525090565b5b80821115611cf35760008181611cea9190611d14565b50600101611cd4565b5090565b5b80821115611d10576000816000905550600101611cf8565b5090565b508054611d2090612647565b6000825580601f10611d325750611d51565b601f016020900490600052602060002090810190611d509190611cf7565b5b50565b6000604051905090565b600080fd5b600080fd5b600073ffffffffffffffffffffffffffffffffffffffff82169050919050565b6000611d9382611d68565b9050919050565b611da381611d88565b8114611dae57600080fd5b50565b600081359050611dc081611d9a565b92915050565b600060208284031215611ddc57611ddb611d5e565b5b6000611dea84828501611db1565b91505092915050565b600081519050919050565b600082825260208201905092915050565b60005b83811015611e2d578082015181840152602081019050611e12565b60008484015250505050565b6000601f19601f8301169050919050565b6000611e5582611df3565b611e5f8185611dfe565b9350611e6f818560208601611e0f565b611e7881611e39565b840191505092915050565b600081519050919050565b600082825260208201905092915050565b6000819050602082019050919050565b611eb881611d88565b82525050565b6000611eca8383611eaf565b60208301905092915050565b6000602082019050919050565b6000611eee82611e83565b611ef88185611e8e565b9350611f0383611e9f565b8060005b83811015611f34578151611f1b8882611ebe565b9750611f2683611ed6565b925050600181019050611f07565b5085935050505092915050565b600060a0820190508181036000830152611f5b8188611e4a565b90508181036020830152611f6f8187611e4a565b90508181036040830152611f838186611e4a565b90508181036060830152611f978185611e4a565b90508181036080830152611fab8184611ee3565b90509695505050505050565b6000819050919050565b611fca81611fb7565b8114611fd557600080fd5b50565b600081359050611fe781611fc1565b92915050565b60006020828403121561200357612002611d5e565b5b600061201184828501611fd8565b91505092915050565b61202381611d88565b82525050565b600060208201905061203e600083018461201a565b92915050565b6000806040838503121561205b5761205a611d5e565b5b600061206985828601611db1565b925050602061207a85828601611db1565b9150509250929050565b60008115159050919050565b61209981612084565b82525050565b60006020820190506120b46000830184612090565b92915050565b600060208201905081810360008301526120d48184611ee3565b905092915050565b600080fd5b600080fd5b7f4e487b7100000000000000000000000000000000000000000000000000000000600052604160045260246000fd5b61211e82611e39565b810181811067ffffffffffffffff8211171561213d5761213c6120e6565b5b80604052505050565b6000612150611d54565b905061215c8282612115565b919050565b600067ffffffffffffffff82111561217c5761217b6120e6565b5b61218582611e39565b9050602081019050919050565b82818337600083830152505050565b60006121b46121af84612161565b612146565b9050828152602081018484840111156121d0576121cf6120e1565b5b6121db848285612192565b509392505050565b600082601f8301126121f8576121f76120dc565b5b81356122088482602086016121a1565b91505092915050565b6000806000806080858703121561222b5761222a611d5e565b5b600085013567ffffffffffffffff81111561224957612248611d63565b5b612255878288016121e3565b945050602085013567ffffffffffffffff81111561227657612275611d63565b5b612282878288016121e3565b935050604085013567ffffffffffffffff8111156122a3576122a2611d63565b5b6122af878288016121e3565b925050606085013567ffffffffffffffff8111156122d0576122cf611d63565b5b6122dc878288016121e3565b91505092959194509250565b600081519050919050565b600082825260208201905092915050565b6000819050602082019050919050565b600082825260208201905092915050565b600061233082611df3565b61233a8185612314565b935061234a818560208601611e0f565b61235381611e39565b840191505092915050565b600061236a8383612325565b905092915050565b6000602082019050919050565b600061238a826122e8565b61239481856122f3565b9350836020820285016123a685612304565b8060005b858110156123e257848403895281516123c3858261235e565b94506123ce83612372565b925060208a019950506001810190506123aa565b50829750879550505050505092915050565b6000604082019050818103600083015261240e818561237f565b905081810360208301526124228184611ee3565b90509392505050565b6000806040838503121561244257612441611d5e565b5b600061245085828601611db1565b925050602083013567ffffffffffffffff81111561247157612470611d63565b5b61247d858286016121e3565b9150509250929050565b600081519050919050565b600082825260208201905092915050565b6000819050602082019050919050565b600060a08301600083015184820360008601526124d08282612325565b915050602083015184820360208601526124ea8282612325565b915050604083015184820360408601526125048282612325565b9150506060830151848203606086015261251e8282612325565b91505060808301516125336080860182611eaf565b508091505092915050565b600061254a83836124b3565b905092915050565b6000602082019050919050565b600061256a82612487565b6125748185612492565b935083602082028501612586856124a3565b8060005b858110156125c257848403895281516125a3858261253e565b94506125ae83612552565b925060208a0199505060018101905061258a565b50829750879550505050505092915050565b600060208201905081810360008301526125ee818461255f565b905092915050565b60006020820190508181036000830152612610818461237f565b905092915050565b7f4e487b7100000000000000000000000000000000000000000000000000000000600052602260045260246000fd5b6000600282049050600182168061265f57607f821691505b60208210810361267257612671612618565b5b50919050565b7f4e487b7100000000000000000000000000000000000000000000000000000000600052603260045260246000fd5b7f4e487b7100000000000000000000000000000000000000000000000000000000600052601160045260246000fd5b60006126e182611fb7565b91507fffffffffffffffffffffffffffffffffffffffffffffffffffffffffffffffff8203612713576127126126a7565b5b600182019050919050565b600061272982611fb7565b915061273483611fb7565b925082820390508181111561274c5761274b6126a7565b5b92915050565b7f4e487b7100000000000000000000000000000000000000000000000000000000600052603160045260246000fd5b60008190508160005260206000209050919050565b60006020601f8301049050919050565b600082821b905092915050565b6000600883026127e37fffffffffffffffffffffffffffffffffffffffffffffffffffffffffffffffff826127a6565b6127ed86836127a6565b95508019841693508086168417925050509392505050565b6000819050919050565b600061282a61282561282084611fb7565b612805565b611fb7565b9050919050565b6000819050919050565b6128448361280f565b61285861285082612831565b8484546127b3565b825550505050565b600090565b61286d612860565b61287881848461283b565b505050565b5b8181101561289c57612891600082612865565b60018101905061287e565b5050565b601f8211156128e1576128b281612781565b6128bb84612796565b810160208510156128ca578190505b6128de6128d685612796565b83018261287d565b50505b505050565b600082821c905092915050565b6000612904600019846008026128e6565b1980831691505092915050565b600061291d83836128f3565b9150826002028217905092915050565b61293682611df3565b67ffffffffffffffff81111561294f5761294e6120e6565b5b6129598254612647565b6129648282856128a0565b600060209050601f8311600181146129975760008415612985578287015190505b61298f8582612911565b8655506129f7565b601f1984166129a586612781565b60005b828110156129cd578489015182556001820191506020850194506020810190506129a8565b868310156129ea57848901516129e6601f8916826128f3565b8355505b6001600288020188555050505b505050505050565b7f596f7520646f206e6f7420686176652061636365737300000000000000000000600082015250565b6000612a35601683611dfe565b9150612a40826129ff565b602082019050919050565b60006020820190508181036000830152612a6481612a28565b9050919050565b7f596f7520646f206e6f7420686176652061636365737320746f2074686973207060008201527f617469656e742064617461000000000000000000000000000000000000000000602082015250565b6000612ac7602b83611dfe565b9150612ad282612a6b565b604082019050919050565b60006020820190508181036000830152612af681612aba565b905091905056fea26469706673582212200fa75ed919333c7dc5cb594625c468f0f95938d3692cabd5ee497ec58bb3837564736f6c63430008130033",
  "immutableReferences": {},
  "source": "pragma solidity ^0.8.17;\r\n\r\ncontract MedicalRecordsManagement {\r\n\r\n    event AccessChanged(address indexed patient, address indexed doctor, bool accessGranted);\r\n\r\n    struct ipfsRecord{\r\n        string[] ipfsHashes;\r\n        address[] doctorAccessList;\r\n    }\r\n    struct doctor{\r\n        string username;\r\n        string name;\r\n        string licenseId;\r\n        string specialization;\r\n        address[] patientAccessList;\r\n    }\r\n\r\n    struct toGetDoctorList{\r\n        string username;\r\n        string name;\r\n        string licenseId;\r\n        string specialization;\r\n        address doctorAdd;\r\n    }\r\n\r\n    address[] public doctorAddresses;\r\n    toGetDoctorList[] doctorList;\r\n    mapping(address => ipfsRecord) patientRecords;\r\n    mapping(address => doctor) doctorRecords;\r\n\r\n    function createPatient() public {\r\n        // require(patientRecords[msg.sender].ipfsHashes.length == 0, \"Patient already exists\");\r\n        ipfsRecord memory i;\r\n        patientRecords[msg.sender] = i;\r\n    }\r\n    function createDoctor(string memory _username, string memory _name, string memory _licenseId,  string memory _specialization) public {\r\n        // require(doctorRecords[msg.sender].username == \"\", \"Doctor already exists\");\r\n\r\n        doctor memory d;\r\n        d.username = _username;\r\n        d.name = _name;\r\n        d.licenseId = _licenseId;\r\n        d.specialization = _specialization;\r\n        doctorRecords[msg.sender] = d;\r\n        doctorAddresses.push(msg.sender);\r\n        doctorList.push(toGetDoctorList(_username,_name,_licenseId,_specialization,msg.sender));\r\n\r\n    }\r\n    function getPatient(address add) view public returns (string[] memory, address[] memory ) {\r\n        return (patientRecords[add].ipfsHashes,patientRecords[add].doctorAccessList);\r\n    }\r\n    function getDoctor(address add) view public returns (string memory, string memory, string memory, string memory, address[] memory){\r\n        return (doctorRecords[add].username, doctorRecords[add].name,doctorRecords[add].licenseId,doctorRecords[add].specialization,doctorRecords[add].patientAccessList);\r\n    }\r\n\r\n    function grantAccess(address doctorAdd) public{\r\n        patientRecords[msg.sender].doctorAccessList.push(doctorAdd);\r\n        doctorRecords[doctorAdd].patientAccessList.push(msg.sender);\r\n        emit AccessChanged(msg.sender, doctorAdd, true);\r\n    }\r\n    function revokeAccess(address doctorAdd) public {\r\n        uint256 index;\r\n        uint256 accessCount = patientRecords[msg.sender].doctorAccessList.length;\r\n\r\n        // loop through the patient's doctor access list to find the doctor's address and its index\r\n        for (uint256 i = 0; i < accessCount; i++) {\r\n            if (patientRecords[msg.sender].doctorAccessList[i] == doctorAdd) {\r\n                index = i;\r\n                break;\r\n            }\r\n        }\r\n\r\n        // remove the doctor's address from the patient's doctor access list\r\n        if (index < accessCount) {\r\n            patientRecords[msg.sender].doctorAccessList[index] = patientRecords[msg.sender].doctorAccessList[accessCount - 1];\r\n            patientRecords[msg.sender].doctorAccessList.pop();\r\n        }\r\n\r\n        // remove the patient's address from the doctor's patient access list\r\n        accessCount = doctorRecords[doctorAdd].patientAccessList.length;\r\n        for (uint256 i = 0; i < accessCount; i++) {\r\n            if (doctorRecords[doctorAdd].patientAccessList[i] == msg.sender) {\r\n                index = i;\r\n                break;\r\n            }\r\n        }\r\n        if (index < accessCount) {\r\n            doctorRecords[doctorAdd].patientAccessList[index] = doctorRecords[doctorAdd].patientAccessList[accessCount - 1];\r\n            doctorRecords[doctorAdd].patientAccessList.pop();\r\n        }\r\n\r\n        emit AccessChanged(msg.sender, doctorAdd, false);\r\n    }\r\n\r\n    function getAccessedDoctorList(address patientAdd) view public  returns (address[] memory){\r\n        return patientRecords[patientAdd].doctorAccessList;\r\n    }\r\n    function getAccessedPatientList(address doctorAdd) view public returns (address[] memory){\r\n        return doctorRecords[doctorAdd].patientAccessList;\r\n    }\r\n    function getAllDoctors() view public returns(toGetDoctorList[] memory){\r\n        return doctorList;\r\n    }\r\n\r\n    function checkAccess(address pAdd, address dAdd) view public returns(bool){\r\n        uint256 accessCount = patientRecords[pAdd].doctorAccessList.length;\r\n        for (uint256 i = 0; i < accessCount; i++) {\r\n            if (patientRecords[pAdd].doctorAccessList[i] == dAdd) {\r\n                return true;\r\n            }\r\n        }\r\n        return false;\r\n    }\r\n    function getPatientDataForDoctor(address patientAdd) public view returns (string[] memory){\r\n        require(checkAccess(patientAdd,msg.sender),\"You do not have access to this patient data\");\r\n        return (patientRecords[patientAdd].ipfsHashes);\r\n    }\r\n    function addPatientDataForDoctor(address patientAdd, string memory data) public{\r\n        require(checkAccess(patientAdd,msg.sender),\"You do not have access\");\r\n        patientRecords[patientAdd].ipfsHashes.push(data);\r\n    }\r\n}",
  "sourcePath": "C:\\Users\\parva\\Desktop\\FYP\\Implementation\\ehr\\contracts\\MedicalRecordsManagement.sol",
  "compiler": {
    "name": "solc",
    "version": "0.8.19+commit.7dd6d404.Emscripten.clang"
  },
  "schemaVersion": "3.4.13",
  "updatedAt": "2023-03-17T21:00:08.308Z",
  "networkType": "ethereum",
  "devdoc": {
    "kind": "dev",
    "methods": {},
    "version": 1
  },
  "userdoc": {
    "kind": "user",
    "methods": {},
    "version": 1
  }
}