{
  "contractName": "PatientRegistry",
  "abi": [
    {
      "inputs": [
        {
          "internalType": "string",
          "name": "",
          "type": "string"
        }
      ],
      "name": "patientinfo",
      "outputs": [
        {
          "internalType": "string",
          "name": "email",
          "type": "string"
        },
        {
          "internalType": "bytes",
          "name": "private_key",
          "type": "bytes"
        },
        {
          "internalType": "bytes",
          "name": "public_key",
          "type": "bytes"
        },
        {
          "internalType": "bytes",
          "name": "password",
          "type": "bytes"
        }
      ],
      "stateMutability": "view",
      "type": "function",
      "constant": true
    },
    {
      "inputs": [
        {
          "internalType": "string",
          "name": "_email",
          "type": "string"
        },
        {
          "internalType": "bytes",
          "name": "_private_key",
          "type": "bytes"
        },
        {
          "internalType": "bytes",
          "name": "_public_key",
          "type": "bytes"
        },
        {
          "internalType": "bytes",
          "name": "_password",
          "type": "bytes"
        }
      ],
      "name": "addPatientInfo",
      "outputs": [],
      "stateMutability": "nonpayable",
      "type": "function"
    },
    {
      "inputs": [
        {
          "internalType": "string",
          "name": "_email",
          "type": "string"
        }
      ],
      "name": "getPatientInfo",
      "outputs": [
        {
          "components": [
            {
              "internalType": "string",
              "name": "email",
              "type": "string"
            },
            {
              "internalType": "bytes",
              "name": "private_key",
              "type": "bytes"
            },
            {
              "internalType": "bytes",
              "name": "public_key",
              "type": "bytes"
            },
            {
              "internalType": "bytes",
              "name": "password",
              "type": "bytes"
            }
          ],
          "internalType": "struct PatientRegistry.PatientInfo",
          "name": "",
          "type": "tuple"
        }
      ],
      "stateMutability": "view",
      "type": "function",
      "constant": true
    }
  ],
  "bytecode": "0x608060405234801561001057600080fd5b5061108f806100206000396000f3fe608060405234801561001057600080fd5b50600436106100415760003560e01c806312cb2b29146100465780634aaf6ff71461006257806368cdafb314610095575b600080fd5b610060600480360381019061005b919061086e565b6100c5565b005b61007c60048036038101906100779190610945565b610165565b60405161008c9493929190610a62565b60405180910390f35b6100af60048036038101906100aa9190610945565b6103cb565b6040516100bc9190610bcf565b60405180910390f35b6040518060800160405280858152602001848152602001838152602001828152506000856040516100f69190610c2d565b908152602001604051809103902060008201518160000190816101199190610e5a565b50602082015181600101908161012f9190610f87565b5060408201518160020190816101459190610f87565b50606082015181600301908161015b9190610f87565b5090505050505050565b60008180516020810182018051848252602083016020850120818352809550505050505060009150905080600001805461019e90610c73565b80601f01602080910402602001604051908101604052809291908181526020018280546101ca90610c73565b80156102175780601f106101ec57610100808354040283529160200191610217565b820191906000526020600020905b8154815290600101906020018083116101fa57829003601f168201915b50505050509080600101805461022c90610c73565b80601f016020809104026020016040519081016040528092919081815260200182805461025890610c73565b80156102a55780601f1061027a576101008083540402835291602001916102a5565b820191906000526020600020905b81548152906001019060200180831161028857829003601f168201915b5050505050908060020180546102ba90610c73565b80601f01602080910402602001604051908101604052809291908181526020018280546102e690610c73565b80156103335780601f1061030857610100808354040283529160200191610333565b820191906000526020600020905b81548152906001019060200180831161031657829003601f168201915b50505050509080600301805461034890610c73565b80601f016020809104026020016040519081016040528092919081815260200182805461037490610c73565b80156103c15780601f10610396576101008083540402835291602001916103c1565b820191906000526020600020905b8154815290600101906020018083116103a457829003601f168201915b5050505050905084565b6103d361064b565b6000826040516103e39190610c2d565b908152602001604051809103902060405180608001604052908160008201805461040c90610c73565b80601f016020809104026020016040519081016040528092919081815260200182805461043890610c73565b80156104855780601f1061045a57610100808354040283529160200191610485565b820191906000526020600020905b81548152906001019060200180831161046857829003601f168201915b5050505050815260200160018201805461049e90610c73565b80601f01602080910402602001604051908101604052809291908181526020018280546104ca90610c73565b80156105175780601f106104ec57610100808354040283529160200191610517565b820191906000526020600020905b8154815290600101906020018083116104fa57829003601f168201915b5050505050815260200160028201805461053090610c73565b80601f016020809104026020016040519081016040528092919081815260200182805461055c90610c73565b80156105a95780601f1061057e576101008083540402835291602001916105a9565b820191906000526020600020905b81548152906001019060200180831161058c57829003601f168201915b505050505081526020016003820180546105c290610c73565b80601f01602080910402602001604051908101604052809291908181526020018280546105ee90610c73565b801561063b5780601f106106105761010080835404028352916020019161063b565b820191906000526020600020905b81548152906001019060200180831161061e57829003601f168201915b5050505050815250509050919050565b6040518060800160405280606081526020016060815260200160608152602001606081525090565b6000604051905090565b600080fd5b600080fd5b600080fd5b600080fd5b6000601f19601f8301169050919050565b7f4e487b7100000000000000000000000000000000000000000000000000000000600052604160045260246000fd5b6106da82610691565b810181811067ffffffffffffffff821117156106f9576106f86106a2565b5b80604052505050565b600061070c610673565b905061071882826106d1565b919050565b600067ffffffffffffffff821115610738576107376106a2565b5b61074182610691565b9050602081019050919050565b82818337600083830152505050565b600061077061076b8461071d565b610702565b90508281526020810184848401111561078c5761078b61068c565b5b61079784828561074e565b509392505050565b600082601f8301126107b4576107b3610687565b5b81356107c484826020860161075d565b91505092915050565b600067ffffffffffffffff8211156107e8576107e76106a2565b5b6107f182610691565b9050602081019050919050565b600061081161080c846107cd565b610702565b90508281526020810184848401111561082d5761082c61068c565b5b61083884828561074e565b509392505050565b600082601f83011261085557610854610687565b5b81356108658482602086016107fe565b91505092915050565b600080600080608085870312156108885761088761067d565b5b600085013567ffffffffffffffff8111156108a6576108a5610682565b5b6108b28782880161079f565b945050602085013567ffffffffffffffff8111156108d3576108d2610682565b5b6108df87828801610840565b935050604085013567ffffffffffffffff811115610900576108ff610682565b5b61090c87828801610840565b925050606085013567ffffffffffffffff81111561092d5761092c610682565b5b61093987828801610840565b91505092959194509250565b60006020828403121561095b5761095a61067d565b5b600082013567ffffffffffffffff81111561097957610978610682565b5b6109858482850161079f565b91505092915050565b600081519050919050565b600082825260208201905092915050565b60005b838110156109c85780820151818401526020810190506109ad565b60008484015250505050565b60006109df8261098e565b6109e98185610999565b93506109f98185602086016109aa565b610a0281610691565b840191505092915050565b600081519050919050565b600082825260208201905092915050565b6000610a3482610a0d565b610a3e8185610a18565b9350610a4e8185602086016109aa565b610a5781610691565b840191505092915050565b60006080820190508181036000830152610a7c81876109d4565b90508181036020830152610a908186610a29565b90508181036040830152610aa48185610a29565b90508181036060830152610ab88184610a29565b905095945050505050565b600082825260208201905092915050565b6000610adf8261098e565b610ae98185610ac3565b9350610af98185602086016109aa565b610b0281610691565b840191505092915050565b600082825260208201905092915050565b6000610b2982610a0d565b610b338185610b0d565b9350610b438185602086016109aa565b610b4c81610691565b840191505092915050565b60006080830160008301518482036000860152610b748282610ad4565b91505060208301518482036020860152610b8e8282610b1e565b91505060408301518482036040860152610ba88282610b1e565b91505060608301518482036060860152610bc28282610b1e565b9150508091505092915050565b60006020820190508181036000830152610be98184610b57565b905092915050565b600081905092915050565b6000610c078261098e565b610c118185610bf1565b9350610c218185602086016109aa565b80840191505092915050565b6000610c398284610bfc565b915081905092915050565b7f4e487b7100000000000000000000000000000000000000000000000000000000600052602260045260246000fd5b60006002820490506001821680610c8b57607f821691505b602082108103610c9e57610c9d610c44565b5b50919050565b60008190508160005260206000209050919050565b60006020601f8301049050919050565b600082821b905092915050565b600060088302610d067fffffffffffffffffffffffffffffffffffffffffffffffffffffffffffffffff82610cc9565b610d108683610cc9565b95508019841693508086168417925050509392505050565b6000819050919050565b6000819050919050565b6000610d57610d52610d4d84610d28565b610d32565b610d28565b9050919050565b6000819050919050565b610d7183610d3c565b610d85610d7d82610d5e565b848454610cd6565b825550505050565b600090565b610d9a610d8d565b610da5818484610d68565b505050565b5b81811015610dc957610dbe600082610d92565b600181019050610dab565b5050565b601f821115610e0e57610ddf81610ca4565b610de884610cb9565b81016020851015610df7578190505b610e0b610e0385610cb9565b830182610daa565b50505b505050565b600082821c905092915050565b6000610e3160001984600802610e13565b1980831691505092915050565b6000610e4a8383610e20565b9150826002028217905092915050565b610e638261098e565b67ffffffffffffffff811115610e7c57610e7b6106a2565b5b610e868254610c73565b610e91828285610dcd565b600060209050601f831160018114610ec45760008415610eb2578287015190505b610ebc8582610e3e565b865550610f24565b601f198416610ed286610ca4565b60005b82811015610efa57848901518255600182019150602085019450602081019050610ed5565b86831015610f175784890151610f13601f891682610e20565b8355505b6001600288020188555050505b505050505050565b60008190508160005260206000209050919050565b601f821115610f8257610f5381610f2c565b610f5c84610cb9565b81016020851015610f6b578190505b610f7f610f7785610cb9565b830182610daa565b50505b505050565b610f9082610a0d565b67ffffffffffffffff811115610fa957610fa86106a2565b5b610fb38254610c73565b610fbe828285610f41565b600060209050601f831160018114610ff15760008415610fdf578287015190505b610fe98582610e3e565b865550611051565b601f198416610fff86610f2c565b60005b8281101561102757848901518255600182019150602085019450602081019050611002565b868310156110445784890151611040601f891682610e20565b8355505b6001600288020188555050505b50505050505056fea2646970667358221220116e6cb30ac6748126efe54b456c4c2e3ebc6667a30dcb97d4d5e9af6f3bb15864736f6c63430008130033",
  "immutableReferences": {},
  "source": "pragma solidity ^0.8.17;\r\n\r\ncontract PatientRegistry {\r\n\r\n    struct PatientInfo {\r\n        string email;\r\n        bytes private_key;\r\n        bytes public_key;\r\n        bytes password;\r\n    }\r\n\r\n    // Mapping to store the data in each table\r\n    mapping(string => PatientInfo) public patientinfo;\r\n\r\n    // Functions to add and remove data from the tables\r\n    function addPatientInfo(string memory _email, bytes memory _private_key, bytes memory _public_key, bytes memory _password) public {\r\n        patientinfo[_email] = PatientInfo(_email, _private_key, _public_key, _password);\r\n    }\r\n\r\n    function getPatientInfo(string memory _email) view public returns (PatientInfo memory){\r\n        return patientinfo[_email];\r\n    }\r\n}",
  "sourcePath": "C:\\Users\\parva\\Documents\\GitHub\\Implementation\\ehr\\contracts\\PatientRegistry.sol",
  "compiler": {
    "name": "solc",
    "version": "0.8.19+commit.7dd6d404.Emscripten.clang"
  },
  "schemaVersion": "3.4.13",
  "updatedAt": "2023-05-09T11:46:51.667Z",
  "networkType": "ethereum",
  "devdoc": {
    "kind": "dev",
    "methods": {},
    "version": 1
  },
  "userdoc": {
    "kind": "user",
    "methods": {},
    "version": 1
  }
}